S01E00006C6D69635F616E645F7465737470726F6A6563745F69412E73333780
S113000000000220AD010000D9010000D901000068
S1130010D9010000D9010000D9010000D901000074
S1130020D9010000D9010000D9010000D901000064
S1130030D9010000D9010000D9010000D901000054
S1130040BD3C000095730000D9010000D9010000F7
S1130050D9010000D9010000D9010000D901000034
S1130060D9010000D9010000D90100006574000025
S1130070D9010000D9010000D9010000D901000014
S1130080D9010000D9010000BD260000712600003E
S1130090D9010000D9010000D9010000D9010000F4
S11300A0492A0000D9010000D9010000D90100004B
S11300B0D9010000D9010000D9750000D901000060
S11300C0D9010000D9010000D9010000D9010000C4
S11300D0D9010000D9010000D901000010B5054C78
S11300E0237833B9044B13B10448AFF300800123E0
S11300F0237010BD880000200000000018E50000F7
S1130100084B10B51BB108480849AFF300800848F4
S1130110036803B910BD074B002BFBD0BDE81040AA
S1130120184700BF0000000018E500008C00002004
S11301308000002000000000154B002B08BF134B6B
S11301409D46A3F5803A00218B460F461348144A76
S1130150121A0CF03AF90F4B002B00D098470E4BB3
S1130160002B00D098470020002104000D000D480A
S1130170002802D00C48AFF300800CF0F5F8200002
S113018029000BF049FD0CF0DBF800BF000008006B
S11301900000022000000000000000008800002091
S11301A048100020000000000000000006488047BE
S11301B00649074A074B9A42BEBF51F8040B42F85E
S11301C0040BF8E7FFF7B8FF5903000024E500002B
S11301D00000002084000020FEE700BF80B400AFD0
S11301E0044BDB6C1B0EDBB21846BD465DF8047B8A
S11301F0704700BFB081E00F80B582B000AF00F05F
S11302001FF87860074B5B6803F00F031A467B689E
S1130210D3407B60044A7B6813607B6818460837C8
S1130220BD4680BD00800C400800002080B400AFB3
S1130230024B1846BD465DF8047B7047006CDC0237
S113024080B582B000AF334BDB6A03F47053B3F56F
S1130250805F0AD0B3F5005F03D0B3F5006F08D018
S11302600BE02D4B1B687B6047E04FF400437B6041
S113027043E02A4B1B687B603FE0264BDB6803F4BA
S1130280E063B3F5007F1BD0B3F5007F05D8002BE6
S113029024D0B3F5807F16D02BE0B3F5806F09D05E
S11302A0B3F5A06F03D0B3F5407F06D021E01C4B1B
S11302B07B6021E01B4B7B601EE01B4B7B601BE0E3
S11302C01A4B7B6018E0FFF789FF0346122B02D913
S11302D0174B7B6010E0174B7B600DE0FFF77EFF50
S11302E00346122B02D9144B7B6005E0134B7B6051
S11302F002E000237B6000BF00BF064B1B6803F4D1
S1130300E0339B0B01337A68B2FBF3F318460837EA
S1130310BD4680BD00800C40040000200000002089
S1130320003FAB01406F4001809FD500C0D8A700BB
S113033040B56400C0CF6A00804F120040420F00F5
S113034080B400AF034B1B681846BD465DF8047BC0
S1130350704700BF0000002080B400AFBD465DF8C8
S1130360047B704780B400AF4FF400431846BD4689
S11303705DF8047B704700BF80B400AF4FF47A731C
S11303801846BD465DF8047B704700BF80B400AFDB
S1130390034B1B681846BD465DF8047B704700BFDD
S11303A00400002080B483B000AF03463960FB71C1
S11303B0FB79002B0DD0FB79012B0AD0FB79022BA2
S11303C007D0FB79032B04D0FB79042B01D0FB79F4
S11303D0052B0949FA793B68012000FA03F3184612
S11303E01346DB0013449B000B44103358600C3756
S11303F0BD465DF8047B70470060004080B483B064
S113040000AF03463960FB71FB79002B0DD0FB79FB
S1130410012B0AD0FB79022B07D0FB79032B04D0E4
S1130420FB79042B01D0FB79052B0949FA793B6848
S1130430012000FA03F318461346DB0013449B0023
S11304400B44103318600C37BD465DF8047B7047CD
S11304500060004080B584B000AF0346FB71002308
S1130460FB600123FB6010E004200A21FFF7C6FFB4
S1130470502001F0D5FF04200A21FFF793FF0F203D
S113048001F0CEFFFB680133FB60FA79FB689A4206
S1130490EADC04200A21FFF7B1FF00BF1037BD4694
S11304A080BD00BF80B500AF0A48012103F026F8E3
S11304B004200A210422002303F090FD04200121DA
S11304C003F0EAFC04200A21FFF76CFF01F056FF59
S11304D000BF80BD00D2040080B582B000AF0346E7
S11304E0FB710B46BB7113467B7100F07DF8FB7901
S11304F0002B09D07B79002B06D0BB79002B03D0CD
S11305000720FFF7A7FF6AE0FB79002B0FD07B7968
S113051083F00103DBB2002B09D0BB7983F0010324
S1130520DBB2002B03D00420FFF794FF57E0FB79E4
S113053083F00103DBB2002B0CD07B79002B09D0B4
S1130540BB7983F00103DBB2002B03D00120FFF75A
S113055081FF44E0FB7983F00103DBB2002B0CD074
S11305607B7983F00103DBB2002B06D0BB79002B2F
S113057003D00220FFF76EFF31E0FB79002B0CD093
S11305807B79002B09D0BB7983F00103DBB2002B0C
S113059003D00520FFF75EFF21E0FB79002B0CD090
S11305A07B7983F00103DBB2002B06D0BB79002BEF
S11305B003D00620FFF74EFF11E0FB7983F001031F
S11305C0DBB2002B09D07B79002B06D0BB79002B42
S11305D003D00320FFF73EFF01E000F005F800BF61
S11305E00837BD4680BD00BF80B500AF04200A2196
S11305F0FFF7D8FE4FF47A7001F012FF00BF80BD00
S113060080B483B000AF03463960FB71FB79002BE3
S11306100DD0FB79012B0AD0FB79022B07D0FB7993
S1130620032B04D0FB79042B01D0FB79052B09495A
S1130630FA793B68012000FA03F318461346DB00FD
S113064013449B000B44103358600C37BD465DF8CF
S1130650047B70470060004080B483B000AF034661
S11306603960FB71FB79002B0DD0FB79012B0AD08B
S1130670FB79022B07D0FB79032B04D0FB79042BE5
S113068001D0FB79052B0949FA793B68012000FA6E
S113069003F318461346DB0013449B000B4410334A
S11306A018600C37BD465DF8047B7047006000405D
S11306B080B500AF012002F027FB00BF80BD00BF62
S11306C080B500AF012002F0FFFAFF2000F002F82D
S11306D000BF80BD80B582B000AF0346FB71FB79DB
S11306E0403B3A2B00F2148101A252F823F000BFE0
S11306F0DD070000090800001109000011090000CD
S1130700110900001109000011090000110900007D
S1130710350800001109000011090000110900004A
S1130720110900001109000011090000110900005D
S113073061080000110900001109000011090000FE
S1130740110900001109000011090000110900003D
S1130750110900001109000011090000110900002D
S1130760110900001109000011090000110900001D
S1130770110900001109000011090000110900000D
S113078011090000110900001109000011090000FD
S1130790110900008D080000110900001109000072
S11307A011090000110900001109000011090000DD
S11307B011090000110900001109000011090000CD
S11307C0110900001109000011090000B908000016
S11307D01109000011090000E5080000FF2002F0E3
S11307E0F3FA402002F0F0FA002002F0EDFA0020C3
S11307F002F0EAFA002002F0E7FA002002F0E4FA3C
S1130800952002F0E1FA87E0FF2002F0DDFA4120B2
S113081002F0DAFA402002F0D7FA002002F0D4FA0B
S1130820002002F0D1FA002002F0CEFA002002F0FB
S1130830CBFA71E0FF2002F0C7FA482002F0C4FAB4
S1130840002002F0C1FA002002F0BEFA012002F0FA
S1130850BBFAAA2002F0B8FA872002F0B5FA5BE0EE
S1130860FF2002F0B1FA502002F0AEFA002002F0AC
S1130870ABFA002002F0A8FA022002F0A5FA002048
S113088002F0A2FA872002F09FFA45E0FF2002F06E
S11308909BFA692002F098FA402002F095FA0020B1
S11308A002F092FA002002F08FFA002002F08CFA93
S11308B0772002F089FA2FE0FF2002F085FA7720F2
S11308C002F082FA002002F07FFA002002F07CFAA3
S11308D0002002F079FA002002F076FA652002F096
S11308E073FA19E0FF2002F06FFA7A2002F06CFA32
S11308F0002002F069FA002002F066FA002002F0FB
S113090063FA002002F060FA752002F05DFA03E059
S1130910FF2002F059FA00BF00BF0837BD4680BD72
S113092080B584B000AF0023FB600023BB600023CC
S1130930FB71002001210422002303F04FFB00F08F
S1130940D9F8FFF7B5FEFFF7BBFE072001F040FC26
S11309500023FB6005E0FF20FFF7BCFEFB680133CA
S1130960FB60FB68092BF6DDFFF7A2FE4020FFF7D2
S1130970B1FEFF23FB710EE0FF2002F00BFA0346E9
S1130980FB71FB680133FB60FB68632B03DDFFF73E
S113099097FE0023AAE0FB79012BEDD1FFF790FE2F
S11309A0FFF786FE4820FFF795FEFF23FB71002327
S11309B0FB600EE0FF2002F0EDF90346FB71FB68DB
S11309C00133FB60FB68632B03DDFFF779FE002333
S11309D08CE0FB79012BEDD1FF2002F0DBF903461B
S11309E0FB71FF2002F0D6F90346FB71FF2002F0F1
S11309F0D1F90346FB71FF2002F0CCF90346FB71E9
S1130A00FB79AA2B03D0FFF75BFE00236EE0FFF710
S1130A1057FEFF23FB712AE0FFF74AFE7720FFF71A
S1130A2059FEFFF74DFEFFF743FE6920FFF752FE24
S1130A300023BB600BE0FF2002F0ACF90346FB711E
S1130A40BB680133BB60BB68032B00DD02E0FB79AC
S1130A50002BF0D1072001F0BBFBFB680133FB60E6
S1130A60FB68632B03DDFFF72BFE00233EE0FB79DD
S1130A70002BD1D1FFF724FEFFF71AFE7A20FFF7EF
S1130A8029FEFF23FB710023FB600EE0FF2002F030
S1130A9081F90346FB71FB680133FB60FB68632B40
S1130AA003DDFFF70DFE002320E0FB79002BEDD1E1
S1130AB0FF2002F06FF90346FB71FB79C02B03D0D2
S1130AC0FFF7FEFD002311E0FF2002F063F9034667
S1130AD0FB71FF2002F05EF90346FB71FF2002F078
S1130AE059F90346FB71FFF7EBFD01231846103754
S1130AF0BD4680BD80B500AF00200121FFF7ACFDED
S1130B0000BF80BD80B500AF00200121FFF778FD54
S1130B1000BF80BD90B589B000AFF860B9607A605D
S1130B200023FB610023BB610023FB750123BB751C
S1130B300023BB617CE0FFF7BBFDFF2002F044F91A
S1130B40512002F041F9FB681B0EDBB2184602F09B
S1130B503BF9FB681B0CDBB2184602F035F9FB6865
S1130B601B0ADBB2184602F02FF9FB68DBB2184609
S1130B7002F02AF9FF2002F027F9FF23FB75002376
S1130B80FB610DE0FF2002F005F90346FB75FB69EC
S1130B900133FB61FB690A2B02D10023BB7502E020
S1130BA0FB7D002BEED1FF23FB750023FB6110E0DE
S1130BB0FF2002F0EFF80346FB75FB690133FB618C
S1130BC0032001F005FBFB690A2B02D10023BB754E
S1130BD002E0FB7DFE2BEBD1032001F0F9FABB7D93
S1130BE0002B1AD00023FB6112E0FB69B3F5007FF0
S1130BF008DAFB69BA68D418FF2002F0CBF8034680
S1130C00237002E0FF2002F0C5F8FB690133FB61A9
S1130C10FB6940F201229342E7DDFFF751FD032017
S1130C2001F0D6FAFB680133FB60BB690133BB6199
S1130C30BA697B689A42FFF47EAFBB7D18462437BD
S1130C40BD4690BD80B588B000AFF860B9607A60E9
S1130C500023FB610023BB610023FB750123BB75EB
S1130C600023BB616AE0FFF723FDFF2002F0ACF82C
S1130C70582002F0A9F8FB681B0EDBB2184602F0FC
S1130C80A3F8FB681B0CDBB2184602F09DF8FB6866
S1130C901B0ADBB2184602F097F8FB68DBB2184671
S1130CA002F092F8FF2002F08FF8FF23FB75002377
S1130CB0FB610DE0FF2002F06DF80346FB75FB6954
S1130CC00133FB61FB690A2B02D10023BB7502E0EF
S1130CD0FB7D002BEED1FF2002F076F8FE2002F01F
S1130CE073F8BB7D002B1ED00023FB6109E0FB6978
S1130CF0BA6813441B78184602F04CF8FB690133B8
S1130D00FB61FB6940F201229342F0DDFF2002F017
S1130D1041F80346FB75FB7DFF2B00D103E0032064
S1130D2001F056FAF2E7FFF7CBFCFB680133FB60F6
S1130D30032001F04DFABB690133BB61BA697B68DA
S1130D409A4290D3BB7D18462037BD4680BD00BF74
S1130D5080B400AF064B1B68B3F5007F01D10123BB
S1130D6000E000231846BD465DF8047B704700BFD1
S1130D70A402002080B400AF054B1B68002B01D1F6
S1130D80012300E000231846BD465DF8047B70474C
S1130D90A402002080B483B000AF0346FB71104B63
S1130DA01B68B3F5007F16DA0E4B1B680E49FA79FF
S1130DB0CA540C4B1B6801330A4A1360084B1B6866
S1130DC00133074A1360074B1B68B3F5007F02D158
S1130DD0044B00221A600C37BD465DF8047B704753
S1130DE0A4020020AC020020A400002080B483B040
S1130DF000AF124B1B68002B18DD114B1B68114A06
S1130E00D35CFB710E4B1B6801330D4A13600B4B13
S1130E101B68013B094A1360094B1B68B3F5007F4B
S1130E2002D1074B00221A60FB7900E030231846F8
S1130E300C37BD465DF8047B704700BFA402002058
S1130E40A8020020A400002080B48BB000AF78601A
S1130E5000233B627B681B68444A82FB03129210A6
S1130E60DB17D31AFB6109237B6220E0FA693F4B4D
S1130E7083FB02139910D317C91A0B469B000B442A
S1130E805B00D31A7B61FB69384A82FB0312921020
S1130E90DB17D31AFB617B6A013B7A69D2B207F193
S1130EA028010B4403F8202C7B6A013B7B627B6A9C
S1130EB0002BDBDC0023BB613EE0BB6903F00103D4
S1130EC0002B11D107F10802BB6913441A7807F10A
S1130ED00801BB690B441B781344D9B207F108021B
S1130EE0BB6913440A461A7007F10802BB6913442C
S1130EF01B78092B14D907F10802BB6913441A782B
S1130F001B4BA3FB0213D9080B469B000B445B004D
S1130F10D31ADBB21A463B6A134401333B6208E03E
S1130F2007F10802BB6913441B781A463B6A134451
S1130F303B62BB690133BB61BB69082BBDDD3A6A07
S1130F401346DB0099180A4BA3FB0123DA08134666
S1130F509B0013445B00CA1AD3B23033DBB2184689
S1130F602C37BD465DF8047B704700BF6766666634
S1130F70CDCCCCCC90B587B000AF786000237B613A
S1130F802423BB8107F10C03786819460BF078FA27
S1130F9038613B69002B02D14FF0FF3337E0FFF794
S1130FA0D7FE034683F00103DBB2002B2DD027E0EC
S1130FB02420FFF7EFFE00237B6110E07B693A6990
S1130FC013441B780D2B00D110E07B693A6913445C
S1130FD01B781846FFF7DEFE7B6901337B617C6971
S1130FE038690BF02DFA03469C42E7D30A20FFF739
S1130FF0D1FE07F10C03002019460BF041FA3861C9
S11310003B69002BD4D1012301E04FF0FF33184694
S11310101C37BD4690BD00BF80B584B000AF78607A
S11310200023FB60786824210BF0FCF9B860BB68EE
S1131030002B01D1002309E07868FFF79BFFF860DB
S1131040FB68002B01DD012300E000231846103764
S1131050BD4680BD80B485B000AF78600B467B8010
S11310600023FB600023FB6007E0FB687A681344FD
S113107000221A70FB680133FB607A88FB689A428D
S1131080F3DC00BF1437BD465DF8047B704700BF36
S113109080B5C6B000AF3B1D18600023C7F81431FB
S11310A0302387F81231002387F81331002387F89F
S11310B0113107F10C0318464FF48071FFF7CAFF92
S11310C0072001F085F80023C7F8143116E001F079
S11310D085FC034687F8123197F81231402B00D172
S11310E011E007F10C02D7F81431134497F81221D8
S11310F01A70D7F814310133C7F81431D7F8143102
S1131100B3F5007FE3DB07F10C023B1D10461968C1
S11311100BF09EF9C7F80C01D7F80C31002B03D063
S1131120012387F8133102E0002387F8133107F114
S11311300C031846FFF770FF034687F8113197F840
S11311401331184607F58C77BD4680BD80B58CB049
S113115000AFF860B9601346FB71002387F82F30A5
S11311600023BB620023FB84002387F8253007F1AA
S1131170140318461021FFF76DFF002387F82F3062
S113118011E097F82F3097F82F200832F9680A44B5
S1131190127807F130010B4403F81C2C97F82F3018
S11311A0013387F82F3097F82F30092BE9D907F14D
S11311B0140207F11003104619460A220BF03AFAFA
S11311C0B862FB79BA681344BA6A120ED2B21A70C2
S11311D0FB790133BA681344BA6A120CD2B21A709A
S11311E0FB790233BA681344BA6A120AD2B21A708B
S11311F0FB790333BA681344BA6AD2B21A7007F19E
S1131200140318460A21FFF725FF002387F82F301F
S113121011E097F82F3097F82F201332F9680A4419
S1131220127807F130010B4403F81C2C97F82F3087
S1131230013387F82F3097F82F30022BE9D907F1C3
S1131240140207F11003104619460A220BF0F2F9B2
S11312500346FB84FB790433BA681344FA8C120AFC
S113126092B2D2B21A70FB790533BA681344FA8C7D
S1131270D2B21A7007F1140318460A21FFF7EAFEE6
S1131280002387F82F3011E097F82F3097F82F209C
S11312901C32F9680A44127807F130010B4403F850
S11312A01C2C97F82F30013387F82F3097F82F3004
S11312B0012BE9D907F1140207F11003104619466E
S11312C00A220BF0B7F9034687F82530FB79063379
S11312D0BA68134497F825201A70FB790633DBB2F9
S11312E018463037BD4680BD90B595B000AFF86064
S11312F0B9601346FB71002387F84F30002387F849
S11313004E30002387F84D30002387F84C300023FB
S113131087F84B3007F1180318463221FFF79AFE7D
S1131320002387F84E301AE097F84E300133FA68FC
S113133013441B782C2B00D115E097F84E3097F806
S11313404E200132F9680A44127807F150010B4427
S113135003F8382C97F84E30013387F84E3097F85D
S11313604E30092BE0D907F1180207F11403104697
S1131370194610220BF05EF90346DAB2BB681A7004
S1131380012387F84C30002387F84D30002387F879
S11313904E3067E007F1180318463221FFF75AFE72
S11313A0002387F84F3029E097F84D2097F84F3005
S11313B013441A46FB6813441B780A2B09D197F887
S11313C04F2097F84D301344DBB2013387F84D308A
S11313D01CE097F84F3097F84D1097F84F200A44C7
S11313E01146FA680A44127807F150010B4403F8D5
S11313F0382C97F84F30013387F84F3097F84F4027
S1131400F8680BF01DF803469C42CDD307F118038E
S113141018461A490BF01CF80346002B1DD107F19E
S11314201803184616490BF013F80346002B14D181
S113143007F1180297F84C301046B9681A46FFF7BE
S113144085FE03461A4697F84C30134487F84C300F
S113145097F84B30013387F84B3097F84E3001330F
S113146087F84E3097F84E20FB799A4292D397F83A
S11314704B3018465437BD4690BD00BF64CE0000C3
S113148070CE000080B500AF0020032104220023A9
S113149002F0A4FD01F0ECF901F05AFA07484FF408
S11314A00071FFF7D7FD064B00221A60054B00229E
S11314B01A60054B00221A6000BF80BDA400002002
S11314C0A4020020A8020020AC02002080B58AB04B
S11314D000AF03463960FB71002387F827300023EF
S11314E03B62FB79002B12D107F10C0318463149FA
S11314F00AF074FF07F10C031846012101F032FAD7
S11315002D48FFF7C5FD034687F827304CE0FB79EB
S1131510012B12D107F10C03184628490AF05EFF8B
S113152007F10C031846032101F01CFA2448FFF7C5
S1131530AFFD034687F8273036E0FB79022B30D124
S11315403B68BB6007F108031846FFF77DFC0346C0
S1131550FB77BB6807F10C0210461A491A460AF0D9
S11315603DFF07F10C0318460AF06AFF03463B628D
S11315703B6A023B07F128021344FA7F03F81C2C50
S11315803B6ADBB2013BDBB207F10C0210461946A1
S113159001F0E8F90C48FFF77BFD034687F8273094
S11315A002E0002387F8273097F8273018462837B9
S11315B0BD4680BD74CE000078CE00007CCE000015
S11315C084CE00008CCE000094CE000080B588B09C
S11315D000AFF860B9607A603B600023FB610023D0
S11315E0BB610023FB753023BB7578684FF4007131
S11315F0FFF730FD11E0FFF7F9FB0346BB75BB7D38
S1131600242B02D1BB690133BB61FB697A681344A3
S1131610BA7D1A70FB690133FB61FFF7ABFB03462C
S113162083F00103DBB2002BE5D13B68FA691A6051
S1131630BB69DBB27868F9681A46FFF755FE0346C2
S1131640FB75FB7D1A46D200D31ADBB20133FB755E
S1131650FB7D022B01D80023FB75FA7DBB681A6061
S1131660BB69DBB218462037BD4680BD80B483B069
S113167000AF03463960FB71FB79002B0DD0FB7979
S1131680012B0AD0FB79022B07D0FB79032B04D062
S1131690FB79042B01D0FB79052B0949FA793B68C6
S11316A0012000FA03F318461346DB0013449B00A1
S11316B00B44103318600C37BD465DF8047B70474B
S11316C00060004080B586B000AF78600B46FB70C8
S11316D000237B6100233B610023FB6000237B72BA
S11316E00023FB720023BB72002001F00DFB0023DA
S11316F07B614BE000233B6109E03B697A6813445A
S11317001B78184601F046FB3B6901333B61FA78CC
S11317103B699A42F1DC0023FB6001F069FB03465C
S11317207B727B7AB52B1DD100233B6114E001F061
S11317305FFB03467B723B69022B07D17B7A012B4B
S113174002D10123FB7201E00023FB72022000F0AE
S11317503FFD3B6901333B613B69082BE7DD012316
S1131760BB720CE0FB680133FB60FB68192B02DDE4
S11317700023FB7203E0022000F02AFDCDE7BB7AD0
S1131780002B00D005E07B6901337B617B69312B41
S1131790B0DD7B69312B01DD0023FB72002001F0F9
S11317A093FA022000F014FD002001F0ADFAFF20AE
S11317B001F0F0FAFB7A18461837BD4680BD00BF29
S11317C080B582B000AF0023FB710023BB710023FE
S11317D07B7111481C21FFF775FF0346FB710F480D
S11317E01C21FFF76FFF0346BB710D481C21FFF757
S11317F069FF03467B71FB79002B07D0BB79002B73
S113180004D07B79002B01D0012300E0002318468B
S11318100837BD4680BD00BFA4CE0000C0CE000086
S1131820DCCE000080B584B000AF00237B700023C1
S1131830FB600023BB6000237B600023FB7000235C
S1131840BB70002001F040FA022000F0C1FC00202F
S113185001F05AFAFF2001F09DFA0023BB604DE02D
S11318600023FB6009E02D4AFB6813441B781846EB
S113187001F090FAFB680133FB60FB68072BF2D997
S113188000237B6001F0B4FA03467B707B78B52BB0
S113189022D10123FB6019E001F0AAFA03467B7010
S11318A0FB68112B02D17B781B01FB70FB681A2BA0
S11318B006D17B7803F00F03DAB2FB781343FB7095
S11318C0022000F085FCFB680133FB60FB68582BA9
S11318D0E2DD0123BB700AE07B6801337B607B6837
S11318E0192B00DD03E0022000F072FCCAE7BB788C
S11318F0002B00D005E0BB680133BB60BB68312B13
S1131900AEDDBB68312B01DDFF23FB70002001F04D
S1131910DBF9FB7818461037BD4680BD9CCE00002D
S113192080B582B000AF0023FB7105483421FFF776
S1131930C9FE0346FB71FB7918460837BD4680BDD6
S1131940F8CE000080B582B000AF0023FB710548DB
S11319500A21FFF7B7FE0346FB71FB7918460837E7
S1131960BD4680BD3CCF000080B582B000AF0023EF
S1131970FB7105481021FFF7A5FE0346FB71FB79B7
S113198018460837BD4680BD2CCF000080B596B000
S113199000AF002387F85730002387F84630002330
S11319A03B650023FB640023BB64002387F84730B6
S11319B0002001F089F9022000F00AFC002001F067
S11319C0A3F9FF2001F0E6F90023FB6460E00023A3
S11319D03B6509E0374A3B6D13441B78184601F018
S11319E0D9F93B6D01333B653B6D072BF2D90023DD
S11319F0BB6401F0FDF9034687F8463097F846309A
S1131A00B52B32D100233B6528E001F0F1F9034600
S1131A1087F8463097F846303A1D104626491A464C
S1131A200AF0DCFC3B1D1846082100F0EBFD052004
S1131A3000F0CEFB3B6D062B0AD197F84630012B04
S1131A4003D1012387F8573002E0002387F8573089
S1131A50022000F0BDFB3B6D01333B653B6D082B61
S1131A60D3DD012387F847300AE0BB6C0133BB6444
S1131A70BB6C192B00DD03E0022000F0A9FBB8E7E2
S1131A8097F84730002B00D005E0FB6C0133FB6472
S1131A90FB6C312B9BDDFB6C312B02DD002387F8C3
S1131AA05730002001F010F997F85730184658378E
S1131AB0BD4680BD48CF000050CF0000B0B491B007
S1131AC000AF786039600023FB6300237B87002329
S1131AD07B6300233B630023FB62062387F82B30E0
S1131AE097F82B3003333A6813441B781B061A46C5
S1131AF0FB6B1343FB6397F82B3002333A681344B0
S1131B001B781B041A46FB6B1343FB6397F82B30BB
S1131B1001333A6813441B781B021A46FB6B1343C8
S1131B20FB6397F82B303A6813441B781A46FB6B17
S1131B301343FB63FB6B3B6197F82B3005333A6827
S1131B4013441B787B877B8F1B027B8797F82B3092
S1131B5004333A6813441B789AB27B8F13437B8710
S1131B607B8FBB8297F82B3006333A6813441B787B
S1131B70BB7597F82B3007333A6813441B78FB7511
S1131B8097F82B3008333A6813441B783B7697F860
S1131B902B3009333A6813441B787B7697F82B3043
S1131BA00A333A6813441B78BB7600237B6397F8A7
S1131BB02B301B333A6813441B781B061A467B6B85
S1131BC013437B6397F82B301A333A6813441B781A
S1131BD01B041A467B6B13437B6397F82B30193332
S1131BE03A6813441B781B021A467B6B13437B63CE
S1131BF097F82B3018333A6813441B781A467B6BDA
S1131C0013437B637B6BFB6100233B6397F82B30AF
S1131C101F333A6813441B781B061A463B6B134365
S1131C203B6397F82B301E333A6813441B781B042C
S1131C301A463B6B13433B6397F82B301D333A68CA
S1131C4013441B781B021A463B6B13433B6397F800
S1131C502B301C333A6813441B781A463B6B1343EE
S1131C603B633B6B3B620023FB6297F82B302733CB
S1131C703A6813441B781B061A46FB6A1343FB623B
S1131C8097F82B3026333A6813441B781B041A4602
S1131C90FB6A1343FB6297F82B3025333A681344ED
S1131CA01B781B021A46FB6A1343FB6297F82B301E
S1131CB024333A6813441B781A46FB6A1343FB62C5
S1131CC0FB6A7B6297F82B3014333A6813441B7811
S1131CD0032B02D101233B7301E000233B737B6898
S1131CE01D4607F10C040FCC0FC594E8070085E8E6
S1131CF0070078684437BD46B0BC704780B594B0DF
S1131D0000AF002387F84B300023FB64002387F8DF
S1131D104A30002387F84930002387F848300023ED
S1131D2087F84730002387F8463000F05BFF002037
S1131D3000210422002302F051F90320052104228A
S1131D40002302F04BF900F045F9FFF739FD034693
S1131D5087F84A30002387F84B30FFF763FD0346CA
S1131D6087F84B30092000F033FA97F84B30732B87
S1131D7003D097F84B30332B15D1012387F8493022
S1131D8000BFFFF7CDFD034687F84830FFF7ECFDB1
S1131D90034687F84730FFF7D5FD034687F84630FA
S1131DA00023FB6419E097F84B303A1D1046244990
S1131DB01A460AF013FB3B1D18460AF041FB034682
S1131DC0DBB23A1D1046194600F01CFCC5E70A2098
S1131DD000F0FEF9FB6C0133FB64FB6C182BF6DDA1
S1131DE00023FB640DE0FFF7ADFDFFF7CFFD0346D5
S1131DF0002B00D008E0092000F0EAF9FB6C013365
S1131E00FB64FB6C3B2BEEDD97F84A30002B11D0C2
S1131E1097F84930002B0DD097F84830002B09D0A3
S1131E2097F84730002B05D097F84630002B01D0A7
S1131E30012300E0002318465037BD4680BD00BF93
S1131E405CCF0000B0B5A4B000AF7860002387F881
S1131E5082300023C7F88C300023C7F88830002371
S1131E60C7F88430002387F88330002000F02CFF6B
S1131E70002000F0ADF9002000F046FFFF2000F044
S1131E8089FF002387F883300023C7F8883064E093
S1131E900023C7F88C300CE04D4AD7F88C3013443B
S1131EA01B78184600F076FFD7F88C300133C7F85A
S1131EB08C30D7F88C30072BEED90023C7F8843048
S1131EC000F096FF034687F8823097F88230B52BEE
S1131ED028D197F882303B720123C7F88C3011E087
S1131EE000F086FF034687F8823007F10802D7F82E
S1131EF08C30134497F882201A70D7F88C30013351
S1131F00C7F88C30D7F88C30582BE9DD07F1640220
S1131F1007F1080310461946FFF7D0FD012387F89F
S1131F20833010E0D7F884300133C7F88430D7F811
S1131F308430192B03DD002000F04AF903E000206F
S1131F4000F046F9BCE797F88330002B00D008E096
S1131F50D7F888300133C7F88830D7F88830312B68
S1131F6096DDD7F88830312B06DC97F8643083F09F
S1131F700103DBB2002B1AD0002387F8643000235E
S1131F80A7F86C30002387F86E30002387F86F3091
S1131F90002387F87030002387F87130002387F816
S1131FA072300023BB6700237B670023FB6700209C
S1131FB000F08AFE7B681D4607F164040FCC0FC550
S1131FC094E8070085E8070078689037BD46B0BDFF
S1131FD09CCE000080B500AF00200021FFF746FB37
S1131FE080BD00BF80B483B000AF78607B680D4AC9
S1131FF093420BD07B680C4A934207D07B680B4A10
S1132000934203D07B680A4A934201D1012300E042
S1132010002303F00103DBB218460C37BD465DF81C
S1132020047B7047000001400004014000080140A7
S1132030000C014080B483B000AF78604FF6FF73AA
S113204018460C37BD465DF8047B704780B582B0F6
S113205000AF786039607868FFF7ECFF7B683A6816
S11320605A620837BD4680BD80B582B000AF786043
S11320700B46FB707868FFF7B5FFFB78002B03D0A5
S11320807B6801225A6002E07B6802225A600837AA
S1132090BD4680BD80B483B000AF786039607B6892
S11320A03A689A610C37BD465DF8047B704700BFFF
S11320B080B483B000AF786039607B68DA683B68CD
S11320C01A437B68DA600C37BD465DF8047B7047C1
S11320D080B485B000AF78607B68DB68FB607B68A8
S11320E01A69FB68134018461437BD465DF8047B33
S11320F0704700BF80B582B000AF786039607868FF
S1132100FFF798FF7B683A681A620837BD4680BDBE
S113211080B582B000AF786039607868FFF78AFFD5
S11321207B683A68DA610837BD4680BD80B584B003
S113213000AF01233B7000237B700023BB7000239E
S1132140FB7000233B7100237B710023BB710023D0
S1132150FB7100233B7200237B720023BB720023BC
S1132160FB7200233B7300233B700A23BB700C48B3
S1132170012101F0C3F90B480021FFF7C9FF094809
S11321800021FFF763FF07480121FFF791FF3B465A
S11321900448194602F0BAF900BF1037BD4680BDA5
S11321A0007204000008014080B500AF024801211C
S11321B0FFF75AFF00BF80BD0008014080B500AFA3
S11321C002480021FFF750FF00BF80BD0008014016
S11321D080B584B000AF0346FB710023FB60FB793C
S11321E00D2B01D90D23FB71FB79062202FA03F3AF
S11321F0FB600F48F968FFF78BFF0D48F968FFF79C
S113220079FF0B480021FFF721FFFFF7CDFF00BF47
S11322100748FFF75DFF0346002BF9D0044801216E
S1132220FFF738FFFFF7CAFF00BF1037BD4680BD78
S11322300008014080B483B000AF78607B680D4A29
S113224093420BD07B680C4A934207D07B680B4ABD
S1132250934203D07B680A4A934201D1012300E0F0
S1132260002303F00103DBB218460C37BD465DF8CA
S1132270047B704700000140000401400008014055
S1132280000C014080B483B000AF78604FF6FF7358
S113229018460C37BD465DF8047B704780B582B0A4
S11322A000AF786039607868FFF7ECFF7B683A68C4
S11322B05A620837BD4680BD80B582B000AF7860F1
S11322C00B46FB707868FFF7B5FFFB78002B03D053
S11322D07B6801225A6002E07B6802225A60083758
S11322E0BD4680BD80B483B000AF786039607B6840
S11322F03A689A610C37BD465DF8047B704700BFAD
S113230080B483B000AF786039607B68DA683B687A
S11323101A437B68DA600C37BD465DF8047B70476E
S113232080B485B000AF78607B68DB68FB607B6855
S11323301A69FB68134018461437BD465DF8047BE0
S1132340704700BF80B582B000AF786039607868AC
S1132350FFF798FF7B683A681A620837BD4680BD6C
S113236080B582B000AF786039607868FFF78AFF83
S11323707B683A68DA610837BD4680BD80B584B0B1
S113238000AF01233B7000237B700023BB7000234C
S1132390FB7000233B7100237B710023BB7100237E
S11323A0FB7100233B7200237B720023BB7200236A
S11323B0FB7200233B7300233B700023BB700C486B
S11323C0012101F09BF80B480021FFF7C9FF0948E0
S11323D00021FFF763FF07480121FFF791FF3B4608
S11323E00448194602F092F800BF1037BD4680BD7C
S11323F0006204000004014080B500AF02480121DE
S1132400FFF75AFF00BF80BD0004014080B500AF54
S113241002480021FFF750FF00BF80BD00040140C7
S113242080B584B000AF0346FB800023FB60FA88CC
S11324301346DB009B1AFB600F48F968FFF790FF17
S11324400D48F968FFF77EFF0B480021FFF726FFD0
S1132450FFF7D2FF00BF0848FFF762FF0346002BD7
S1132460F9D005480121FFF73DFFFFF7CFFF00BF7B
S11324701037BD4680BD00BF0004014080B483B066
S113248000AF0346FB71084997F907305B09FA79F5
S113249002F01F02012000FA02F241F823200C3757
S11324A0BD465DF8047B704700E100E080B483B072
S11324B000AF0346FB71094997F907305B09FA79C4
S11324C002F01F02012000FA02F2603341F82320D7
S11324D00C37BD465DF8047B704700BF00E100E0A7
S11324E080B483B000AF786039607B683A689A64DE
S11324F00C37BD465DF8047B704700BF80B483B0E1
S113250000AF786039607B68DA6C3B68DB431A4063
S11325107B68DA640C37BD465DF8047B704700BF06
S113252080B483B000AF786039607B68DA6C3B6854
S11325301A437B68DA640C37BD465DF8047B704748
S1132540B0B586B000AF274B3C461D460FCD0FC437
S113255095E8030084E8030000233B704FF4E13363
S1132560BB602148012100F0C9FF0120032104229E
S1132570012301F033FD002005210422012301F091
S11325802DFD012004210122002301F027FD17481D
S113259002F082F93B461548194602F0C9F8134A7D
S11325A0124B5B6D43F4817343F0010353650F4891
S11325B041F6FF71FFF794FF0C480421FFF7B0FFC9
S11325C01320FFF773FF1220FFF770FF1320FFF7AC
S11325D055FF1220FFF752FF04F050FA00BF1837DE
S11325E0BD46B0BD70CF00000022040000C800400A
S11325F080B500AF0248052102F06EF800BF80BD2F
S113260000C8004080B584B000AF78600B46FB7012
S11326100023FB600023BB60012004F079FA034629
S113262083F00103DBB2002B18D00023FB600AE027
S1132630FB687A6813441B780120194604F0EEFA0B
S1132640FB680133FB60FA78FB689A42F0DC0748C8
S11326500221FFF765FF0123BB6002E04FF0FF3367
S1132660BB60BB6818461037BD4680BD00C800403B
S113267080B500AF10480221FFF732FF0E4B1B69F3
S113268003F04003002B15D0012004F01BFA03468D
S113269083F00103DBB2002B08D0012004F060FAC0
S11326A003460548194602F077F903E0024802217F
S11326B0FFF724FF80BD00BF00C8004080B500AF15
S11326C00D480421FFF70CFF0B4B1B6903F080033B
S11326D0002B10D0002004F01BFA034683F0010302
S11326E0DBB2002B07D0044802F022F90346002095
S11326F0194604F093FA80BD00C8004080B483B04A
S113270000AF0346FB71084997F907305B09FA7972
S113271002F01F02012000FA02F241F823200C37D4
S1132720BD465DF8047B704700E100E080B483B0EF
S113273000AF0346FB71094997F907305B09FA7941
S113274002F01F02012000FA02F2603341F8232054
S11327500C37BD465DF8047B704700BF00E100E024
S113276080B483B000AF03463960FB71FB79002B62
S11327700DD0FB79012B0AD0FB79022B07D0FB7912
S1132780032B04D0FB79042B01D0FB79052B0949D9
S1132790FA793B68012000FA03F318461346DB007C
S11327A013449B000B44103358600C37BD465DF84E
S11327B0047B70470060004080B483B000AF0346E0
S11327C03960FB71FB79002B0DD0FB79012B0AD00A
S11327D0FB79022B07D0FB79032B04D0FB79042B64
S11327E001D0FB79052B0949FA793B68012000FAED
S11327F003F318461346DB0013449B000B441033C9
S113280018600C37BD465DF8047B704700600040DB
S113281080B483B000AF786039607B683A685A63EB
S11328200C37BD465DF8047B704700BF80B483B0AD
S113283000AF786039607B689A6B3B68DB431A4071
S11328407B689A630C37BD465DF8047B704700BF14
S113285080B483B000AF786039607B689A6B3B6862
S11328601A437B689A630C37BD465DF8047B704756
S113287080B584B000AF00233B7000237B604FF42D
S1132880E133BB6000233B7300237B730023BB73E2
S11328902B48012100F032FE2A48062101F00CF8F1
S11328A02848012100F02AFE2748012101F0A0FC5C
S11328B02648012100F022FE04200E2104220123D7
S11328C001F08CFB04200C210422012301F086FB7F
S11328D004200D210422012301F080FB04200F2198
S11328E00122002301F07AFB174801F0DDFC3B468E
S11328F01548194601F096FC134A134B5B6D43F4DB
S1132900007343F0030353650F48002101F070FC8A
S11329100D4840F2FF71FFF77BFF0B480421FFF7DE
S113292097FF1820FFF702FF1820FFF7E7FE00F0DB
S11329307FF804F0CBF900BF1037BD4680BD00BF5F
S11329400043020003001C0000400840700716000A
S113295080B500AF0248052101F01EFC00BF80BD18
S11329600040084080B584B000AF78600B46FB702F
S11329700023FB600023BB60022004F011FA03462D
S113298083F00103DBB2002B1DD00023FB600AE0BF
S1132990FB687A6813441B780220194604F0BAFADB
S11329A0FB680133FB60FA78FB689A42F0DC00F0C4
S11329B033F80120FFF70CFC07480221FFF748FF1A
S11329C00123BB6002E04FF0FF33BB60BB681846D5
S11329D01037BD4680BD00BF0040084080B582B0BE
S11329E000AF4023FB710B4B1B78184604F0A2F98F
S11329F0034683F00103DBB2002B06D0054B1B78A2
S1132A00184604F003FA0346FB71FB7918460837AD
S1132A10BD4680BDB002002080B500AF04200D216A
S1132A20FFF7CAFE04200C21FFF7C6FE00BF80BDDD
S1132A3080B500AF04200C21FFF792FE04200D2185
S1132A40FFF78EFE00BF80BD80B500AF2F48022186
S1132A50FFF7DEFE2D480421FFF7DAFE2B4B9B68BF
S1132A6003F01003002B27D0022004F063F903467F
S1132A7083F00103DBB2002B18D0022004F0C6F966
S1132A8003461A46224B1A702048012101F0B0FB7C
S1132A901F4B1B781D48194601F052FC1B480021AE
S1132AA001F0A6FB0120FFF793FB05E01748022184
S1132AB0FFF7BCFEFFF7BCFF144B9B6803F0200339
S1132AC0002B21D01148012101F092FB0F4801F0A5
S1132AD023FC03461A460E4B1A700C48002101F0E1
S1132AE087FB0C4B1B78184604F05AF9034683F015
S1132AF00103DBB2002B07D0064B1A78044B1B787A
S1132B001046194604F006FA80BD00BF0040084094
S1132B100C000020B002002080B483B000AF034654
S1132B203960FB71FB79002B0DD0FB79012B0AD0A6
S1132B30FB79022B07D0FB79032B04D0FB79042B00
S1132B4001D0FB79052B0949FA793B68012000FA89
S1132B5003F318461346DB0013449B000B44103365
S1132B6058600C37BD465DF8047B70470060004038
S1132B7080B483B000AF03463960FB71FB79002B4E
S1132B800DD0FB79012B0AD0FB79022B07D0FB79FE
S1132B90032B04D0FB79042B01D0FB79052B0949C5
S1132BA0FA793B68012000FA03F318461346DB0068
S1132BB013449B000B44103318600C37BD465DF87A
S1132BC0047B70470060004080B483B000AF78603D
S1132BD039607B683A689A640C37BD465DF8047BBB
S1132BE0704700BFB0B586B000AF294B3C461D46C8
S1132BF00FCD0FC495E8030084E8030000233B7065
S1132C000123BB7301237B73224BBB602248012148
S1132C1000F074FC032000210422012301F0DEF9FA
S1132C20032002210422012301F0D8F90320032107
S1132C300422012301F0D2F900200C2104220123F3
S1132C4001F0CCF9032007210422012301F0C6F985
S1132C50032001210122002301F0C0F90F4801F0F3
S1132C601BFE3B460D48194601F0B0FD0B4A0B4BC9
S1132C705B6D43F4857343F001035365074841F6E4
S1132C80FF71FFF7A1FF00BF1837BD46B0BD00BFFD
S1132C9088CF000040420F000012040000C400402E
S1132CA080B500AF0248052101F016FD00BF80BDCC
S1132CB000C4004080B500AF0248002101F00CFDC3
S1132CC000BF80BD00C4004080B582B000AF0346A1
S1132CD0FB71FB79002B04D103200321FFF748FF8C
S1132CE00EE0FB79022B04D103200721FFF740FFFC
S1132CF006E0FB79012B03D100200C21FFF738FFFC
S1132D0000BF0837BD4680BD80B582B000AF034622
S1132D10FB71FB79002B0CD103200321FFF7FCFE90
S1132D2003200721FFF724FF00200C21FFF720FFD9
S1132D302BE0FB79022B0CD103200721FFF7ECFEDB
S1132D4003200321FFF714FF00200C21FFF710FFDD
S1132D501BE0FB79012B0CD100200C21FFF7DCFEDA
S1132D6003200321FFF704FF03200721FFF700FFDF
S1132D700BE003200321FFF7FBFE03200721FFF7ED
S1132D80F7FE00200C21FFF7F3FE00BF0837BD4615
S1132D9080BD00BF80B584B000AF0346FB71002343
S1132DA0FB73FFF77DFFFB790648194601F0D4FD5C
S1132DB00346FB73FFF77EFFFB7B18461037BD46C7
S1132DC080BD00BF00C4004080B582B000AF0346A0
S1132DD0FB71FFF765FFFB790448194601F0BCFD60
S1132DE0FFF768FF00BF0837BD4680BD00C4004040
S1132DF080B582B000AF0023FB71FFF751FF064896
S1132E007A2101F0A9FD0346FB71FFF753FFFB791B
S1132E1018460837BD4680BD00C4004080B487B062
S1132E2000AFF860B9607A60FB6803F10473DA00FC
S1132E30BB6813449B007B617B697A681A601C370A
S1132E40BD465DF8047B704780B485B000AF786000
S1132E5039607B6803F10473DA003B6813449B0018
S1132E60FB60FB681B6818461437BD465DF8047B9D
S1132E70704700BF80B485B000AF78607B68002BDA
S1132E8004D07B68B3F5004F00D800BF7B68B3FA69
S1132E9083F3C3F11F03FB60FB6818461437BD4678
S1132EA05DF8047B704700BF80B400AF044BDB6C5B
S1132EB01B0EDBB21846BD465DF8047B704700BFAD
S1132EC0B081E00F80B400AF054BDB6C03F47F03EB
S1132ED01B0CDBB21846BD465DF8047B704700BF8F
S1132EE0B081E00F80B582B000AFFFF7EBFF03467F
S1132EF04A2B04D0792B02D0482B21D022E0144B4A
S1132F001B699BB203F03F039BB21B02FB80104B77
S1132F109B6903F0F0039AB2FB881343FB800C4BCC
S1132F20DB6903F0F0031B099AB2FB881343FB80AF
S1132F30FB88B3F5017F01D3064B04E0064B02E0A6
S1132F40054B00E0002318460837BD4680BD00BF8E
S1132F50D0FF0FE000366E010048E80180B584B070
S1132F6000AF78600123FB60FFF7BCFF02467B687B
S1132F709A4204D30023FB600023BB600BE0FFF7FD
S1132F80B1FF03465A007B689A4202D30123BB6017
S1132F9001E00223BB6008481E21FA68FFF73EFFE8
S1132FA00549054B5B6823F48072BB681B0213431D
S1132FB04B601037BD4680BD00800C4080B582B0A8
S1132FC000AF05481E21FFF73FFF78607B68184675
S1132FD00837BD4680BD00BF00800C4080B582B07C
S1132FE000AF214B5B6903F4E063B3F5007F1CD0B1
S1132FF0B3F5007F05D8002B25D0B3F5807F1FD013
S11330002AE0B3F5C06F24D0B3F5E06F1ED0B3F55A
S1133010407F21D1FFF748FF0346122B02D9134BFF
S11330207B601CE0124B7B6019E0FFF73DFF034619
S1133030122B02D90F4B7B6011E00F4B7B600EE02B
S11330400E4B7B600BE00E4B7B6008E00D4B7B600E
S113305005E00D4B7B6002E000237B6000BF7B68D2
S113306018460837BD4680BD00800C40804F1200D2
S113307040420F0040B56400C0CF6A00C0D8A7002A
S1133080809FD500406F4001003FAB0180B582B006
S113309000AF0D4800F07EFB0346FB70FB78072B66
S11330A005D0092B07D1FDF7CBF8786006E0FFF7D0
S11330B095FF786002E000237B6000BF7B681846C0
S11330C00837BD4680BD00BF06000C0080B485B043
S11330D000AF78603960284BDB6B002B14BF0123F1
S11330E00023BB72244B41F67132DA63224B5B68D6
S11330F003F00703FB60FB68012B01D9042B02D109
S11331000023FB7202E00123FB7200BF7B681B4AB1
S1133110934207D9FB7A002B01D0052300E0042356
S1133120FB6016E07B68154A93420BD87B68144A0F
S1133130934207D9FB7A002B01D0032300E001233B
S1133140FB6006E0FB7A002B01D0022300E00023A1
S1133150FB600949084B5B6823F00702FB681343D3
S11331604B60BB7A002B02D0034B0022DA63143786
S1133170BD465DF8047B704700000C400048E80140
S11331800024F40080B500AFFDF750F8034618465C
S11331900021FFF79BFF80BD80B582B000AF78604F
S11331A0396078683968FFF791FF0837BD4680BDFC
S11331B090B585B000AF78600023BB607B68344A6B
S11331C0934203D0334A934200D000E000BF7868B2
S11331D000F0E0FA0346FB607B682D4A934203D07B
S11331E02C4A934206D00CE02B4B9B6A03F003035A
S11331F0FB6006E0284B9B6A03F00C039B08FB6012
S113320000BFFB68032B3AD801A252F823F000BF99
S11332104732000021320000293200003132000020
S1133220FDF7A0F8B8602DE0FDF7B0F8B86029E02C
S1133230FCF7E2FF0446FFF7C1FE0346013324FA1C
S113324003F3BB601EE00023BB607B68104A93421B
S113325003D07B680F4A934210D10F4B9A6A7B6864
S11332600B498B4201D1102300E0142322FA03F30B
S1133270002B03D0FDF780F8B86003E002E00023E0
S1133280BB6000BFBB6818461437BD4690BD00BF85
S113329002001A0003001C0000800C4080B483B0BC
S11332A000AF7860094B5B6D03F00103002B00D085
S11332B006E000BF054B1A6D7B681340002BF9D163
S11332C00C37BD465DF8047B704700BF00800C409E
S11332D0B0B584B000AF786039607B681B0903F037
S11332E00F03FB60FB68013B062B00F2F48001A294
S11332F052F823F011330000D7340000D734000013
S11333004733000071330000BF33000083340000F2
S11333103B68002B03D03B68082B00D800BFFFF7A5
S113332031FF6F496E4B1B6823F4E0323B68013B6D
S11333309B0313430B60FCF75FFFB860B868002180
S1133340FFF72AFFC8E03B68002B04D03B68B3F5C5
S1133350007F00D800BF3868FFF78CFD38606049F3
S11333605F4B9B6823F00F023B6813438B60B3E011
S11333703B68002B04D03B68B3F5007F00D800BF46
S1133380FFF700FFFCF75CFF02463B68B2FBF3F378
S11333901846FFF7E3FD3868FFF76CFD38605049C5
S11333A04F4B5B6823F00F023B6813434B60FCF701
S11333B023FFB860B8680021FFF7EEFE8CE07B685D
S11333C0484A93421ED0474A934203D8464A9342FE
S11333D007D055E0454A934225D0454A93423FD011
S11333E04EE00420FFF75AFF3868FFF743FD3860CA
S11333F03B493B4B9B6E23F0F0023B681B0113439C
S11334008B663DE00420FFF749FF3868FFF732FD83
S113341038603349324B9B6E23F470623B681B0265
S113342013438B662CE03B680F2B03D93B68802B3E
S113343000D800BF0420FFF731FF3868FFF71AFDFA
S11334403860274D264B9B6E23F440541020FFF721
S113345011FD02463B689B1A1B032343AB660FE036
S11334600420FFF71BFF3868FFF704FD38601C4990
S11334701B4B9B6E23F003023B6813438B6600BF18
S11334802AE07B681B4A934203D01B4A934210D024
S113349020E04020FFF702FF3868FFF7EBFC3860BC
S11334A00F490F4B1B6F23F003023B6813430B6759
S11334B010E04020FFF7F2FE3868FFF7DBFC3860CD
S11334C00749074B1B6F23F030023B681B01134372
S11334D00B6700BF00E000BF1037BD46B0BD00BFA2
S11334E000800C4060261400601610006000260066
S11334F060062A00700716007017180080B586B0A1
S113350000AF78600B46FB7000233B617B681B0AAD
S113351003F00F03013B092B45D801A252F823F015
S11335205D3500006335000049350000A735000013
S1133530A73500006935000073350000A735000089
S1133540A73500007D350000194B7B61194800F058
S11335503DF803461846FFF701FD12E0164B7B6168
S11335600FE0164B7B610CE0154B7B6101233B6143
S113357007E0144B7B6110233B6102E0124B7B613B
S113358000BF7B681B0B03F01F03FB603B69002B30
S113359002D03869FFF782FEFB787869F9681A4629
S11335A0FFF73CFC00E000BF1837BD4680BD00BFFC
S11335B040800C400043020008800C4044800C40D2
S11335C058800C4060800C4078800C4090B585B0E9
S11335D000AF78607B6803F47813B3F5A01F5DD067
S11335E0B3F5A01F17D8B3F5802F34D0B3F5802FCF
S11335F005D8002B2BD0B3F5003F38D0BBE0B3F592
S1133600602F00F0B480B3F5801F39D0B3F5402F9C
S113361000F0A980AFE0B3F5E01F00F08480B3F5BB
S1133620E01F0AD8B3F5C01F00F08F80B3F5D01F98
S113363021D0B3F5B01F7BD09DE0B3F5201F4ED051
S1133640B3F5281F62D0B3F5181F35D093E0FCF70B
S1133650F7FDF86092E0FCF7F3FDF8604A4B9B68D5
S113366003F00F031A46FB68D340FB6086E0FCF7C7
S1133670C3FDF86082E04548FFF79AFDF8607DE0FD
S11336804248FFF795FDF8603F4B9B6E03F0F00353
S11336901B091A46FB68D340FB606FE03B48FFF709
S11336A087FDF860384B9B6E03F470631B0A1A465F
S11336B0FB68D340FB6061E03448FFF779FDF860B4
S11336C0314B9B6E03F440531C0B1020FFF7D2FBCD
S11336D0034623441A46FB68D340FB604EE02B4864
S11336E0FFF766FDF860284B9B6E03F440531B0BF9
S11336F01A46FB68D340FB60234BDB6F03F00703E0
S11337000133FA68B2FBF3F3FB6037E01F48FFF7BD
S11337104FFDF8601C4B9B6E03F003031A46FB68D5
S1133720D340FB602AE01A48FFF742FDF86025E029
S11337301748FFF73DFDF860134B1B6F03F00303BD
S11337401A46FB68D340FB6018E01148FFF730FDD0
S1133750F8600D4B1B6F03F030031B091A46FB681E
S1133760D340FB600AE0FFF791FCF86006E0FFF746
S113377035FCF86002E00023FB6000BFFB681846DC
S11337801437BD4690BD00BF00800C4002001A00F3
S113379003001C0080B485B000AF78600123FB7384
S11337A07B6803F00F03BB60BB68013B052B77D834
S11337B001A252F823F000BFD137000007380000FF
S11337C043380000A1380000A13800007F38000011
S11337D0384BDB6A03F47053B3F5805F09D0B3F55B
S11337E0005F03D0B3F5006F06D008E00223FB733B
S11337F008E00323FB7305E00423FB7302E00523C5
S1133800FB7300BF4FE02B4B9B6A03F00303022BB7
S113381006D0032B07D0012B08D10323FB730FE041
S11338200223FB730CE00623FB7309E0214B9B6A24
S113383003F48033002B02D00A23FB7300E000BFA3
S113384031E01C4B9B6A03F00C03082B06D00C2BB5
S113385007D0042B08D10323FB730FE00223FB736F
S11338600CE00623FB7309E0124B9B6A03F48013FC
S1133870002B02D00A23FB7300E000BF13E00D4BC2
S11338801B6803F08053002B03D0B3F1805F03D097
S113389009E00723FB7302E00923FB7300BF02E086
S11338A00023FB7300BFFB7B18461437BD465DF84D
S11338B0047B704700800C4080B588B000AF78600E
S11338C00B46FB700323FB610323FB7600233B6160
S11338D07B6803F00F03FB60FB68013B052B00F2E0
S11338E0F08001A252F823F001390000D73900001A
S11338F0D7390000C33A0000C33A0000993A0000E7
S1133900FB78023B082B00F2DE8001A252F823F080
S1133910353900003F390000493900008B39000077
S1133920C73A0000C73A0000C73A0000C73A00008F
S1133930C73A00000423FB610023FB7631E0032334
S1133940FB610123FB762CE00223FB610223FB765F
S1133950FFF7C8FA034601331846FFF7FFFAFCF7EE
S1133960EFFC02465B4B9A4206D95B4A5A4B1B68F2
S113397043F06003136014E0574A574B1B6823F06D
S1133980600343F0200313600BE00123FB61032376
S1133990FB76FFF7A7FA034601331846FFF7DEFA72
S11339A000BFFB7E18460121012200F00BF9FFF74E
S11339B0E9FB494AFB6953624848FFF707FE03469F
S11339C01846FFF7CBFAFCF717FCB860B86800217B
S11339D0FFF7E2FB7AE0FB78013B092B75D801A2E3
S11339E052F823F00D3A0000133A0000233A000085
S11339F0CB3A0000CB3A0000333A0000CB3A000047
S1133A00CB3A0000CB3A00004F3A000000237B6120
S1133A1022E000200121012200F0D4F802237B617E
S1133A201AE001200121012200F0CCF801237B617E
S1133A3012E0FCF7E1FBB860B868FFF78FFA28489A
S1133A4004210122FFF7EAF903237B6104E0002348
S1133A507B6101233B6100BFFB68022B0DD11E4932
S1133A601D4B9B6A23F4803323F003037A691A43C2
S1133A703B691B0413438B6228E01749164B9B6A6E
S1133A8023F4801323F00C037A6992001A433B69F0
S1133A901B0513438B6219E0FB78072B02D0092B1B
S1133AA007D013E00C4A0C4B1B6823F080531360BF
S1133AB006E0094A084B1B6843F08053136000BFBB
S1133AC004E000BF02E000BF00E000BF2037BD46B5
S1133AD080BD00BF0048E80100800C4000430200A4
S1133AE040800C4080B586B000AF0346FB71FB7983
S1133AF0052B5CD801A252F823F000BF153B00004F
S1133B001F3B00002D3B00003B3B0000453B0000F9
S1133B104F3B0000284BDB6ADBB27B611EE0264B87
S1133B20DB6A03F47F431B0A7B6117E0224BDB6AE9
S1133B3003F47F031B0C7B6110E01F4BDB6A1B0E3D
S1133B407B610BE01C4B1B6BDBB27B6106E01A4B09
S1133B501B6B03F47F431B0A7B6100BF1120FFF73B
S1133B6019FE0346FB74FB7C052B01D1FFF70AFB0E
S1133B701249124BDB6823F4FF6323F00703FA793D
S1133B8012021A437B691343CB60FB7C052B06D1DD
S1133B90FCF732FBF860F8680021FFF7FDFA0848EB
S1133BA0FFF714FD03461846FFF7D8F900E000BFFD
S1133BB01837BD4680BD00BFB081E00F00800C40C7
S1133BC00043020080B586B000AF0346FB710B468C
S1133BD0BB7113467B71FB79042B48D801A252F8C0
S1133BE023F000BF313C0000233C0000073C0000F0
S1133BF0F93B0000153C000001233B610223FB60FC
S1133C0001237B611DE004233B610823FB60032344
S1133C107B6116E010233B612023FB6005237B615D
S1133C200FE040233B618023FB6007237B6108E0B6
S1133C304FF480733B614FF40073FB6009237B6195
S1133C4000BFBB79002B0ED00B4A3B6913627B7912
S1133C50002B0DD000BF09487969FFF7F5F803463A
S1133C60002BF8D004E0044AFB68136200E000BFB4
S1133C701837BD4680BD00BF00800C402C800C402E
S1133C8080B483B000AFEFF310833B603B687B608C
S1133C9072B67B6818460C37BD465DF8047B7047E6
S1133CA080B483B000AF78607B68002B00D162B62B
S1133CB00C37BD465DF8047B704700BF80B58AB001
S1133CC000AF334B03F580531B68BB61304B03F5E6
S1133CD080530C331B68BA691340BB612C4B9B6B3C
S1133CE07B61BA697B6913403B620023FB6149E055
S1133CF000237B623BE03B6A03F00103002B30D0DE
S1133D00234B9B683B6101227B6A02FA03F3FB604D
S1133D101F4B03F580530833FA681A607B6A1B0152
S1133D203A691344DB68BB60BB68002B19D0BB68DD
S1133D301B7A7B60BB681B7A83F00103DAB2BB6831
S1133D401A72BB681B68002B0BD0BB681B68786AAF
S1133D507A68002A14BF01220022D1B2BA685268DC
S1133D6098473B6A5B083B627B6A01337B623B6A30
S1133D70002BC0D17B69DA43BB6913403B62FB690A
S1133D800133FB61FB69012BB2DD2837BD4680BDE1
S1133D9000200C4080B487B000AFF860B9607A604E
S1133DA0FB6803F10473DA00BB6813449B007B6176
S1133DB07B697A681A601C37BD465DF8047B7047DE
S1133DC080B485B000AFF860B9607A60FB681A68A7
S1133DD0BB68DB431A407B681A43FB681A601437DC
S1133DE0BD465DF8047B704780B483B000AF0346E2
S1133DF03960FB71FB79002B0DD0FB79012B0AD0C4
S1133E00FB79022B07D0FB79032B04D0FB79042B1D
S1133E1001D0FB79052B0949FA793B68012000FAA6
S1133E2003F318461346DB0013449B000B44103382
S1133E3058600C37BD465DF8047B70470060004055
S1133E4080B483B000AF03463960FB71FB79002B6B
S1133E500DD0FB79012B0AD0FB79022B07D0FB791B
S1133E60032B04D0FB79042B01D0FB79052B0949E2
S1133E70FA793B68012000FA03F318461346DB0085
S1133E8013449B000B44103318600C37BD465DF897
S1133E90047B70470060004090B482B000AF0346DA
S1133EA00A46FB711346BB71FB79002B0ED0FB79DC
S1133EB0012B0BD0FB79022B08D0FB79032B05D007
S1133EC0FB79042B02D0FB79052B03D1BB79032B9F
S1133ED000D800BF0B48FA790A4CF9790B46DB008D
S1133EE00B449B0023441B6823F00301BB79194353
S1133EF01346DB0013449B00034419600837BD4696
S1133F0090BC70470060004080B586B000AFB960D7
S1133F107A601A460346FB731346BB7300237B6126
S1133F20FB7B002B0DD0FB7B012B0AD0FB7B022BF0
S1133F3007D0FB7B032B04D0FB7B042B01D0FB7B42
S1133F40052B7B68072B0ED87B689B001A4607233A
S1133F5003FA02F1FB7B7A689200934019481A46EF
S1133F60FFF72EFF10E07B68083B7B617B699B00B9
S1133F701A46072303FA02F1FB7B7A699200934005
S1133F8011481A46FFF71CFFBB7B104879681A4694
S1133F90FFF700FF97F820300D4879681A46FFF7BD
S1133FA0F9FE0C4A7B68012101FA03F3C2F81C31C3
S1133FB097F82430084879681A46FFF7EBFE18375B
S1133FC0BD4680BD006100400461004008610040BE
S1133FD00C610040006000401061004090B585B065
S1133FE000AFB9607B600346FB731346BB73FB7B76
S1133FF0002B0DD0FB7B012B0AD0FB7B022B07D0BF
S1134000FB7B032B04D0FB7B042B01D0FB7B052B18
S1134010BB7B002B0DD07B68002B05D0FB7B1846A7
S1134020B968FFF70DFF04E0FB7B1846B968FFF79A
S1134030DBFEBB68072B1CD82A4CFA7B2948F97B8A
S11340400B46DB000B449B0003445968BB689B0090
S113405018460F238340DB430B40B97BB8688000CC
S1134060814019431346DB0013449B0023445960E9
S113407024E01C4CFA7B1B48F97B0B46DB000B4409
S11340809B00034408331968BB6803F18043083B71
S11340909B0018460F238340DB431940B87BBB6861
S11340A003F18043083B9B0000FA03F319431346D2
S11340B0DB0013449B00234408331960BB7B002BB3
S11340C00DD17B68002B05D0FB7B1846B968FFF740
S11340D0B7FE04E0FB7B1846B968FFF785FE14378A
S11340E0BD4690BD0060004080B483B000AF7860EE
S11340F039607B681B6C03F00103002B00D006E0E1
S113410000BF7B685A6C3B681340002BF9D10C3715
S1134110BD465DF8047B704780B586B000AFF8609B
S1134120B9607A60BB68002B12D1FB68164A9342CF
S113413002D1164B7B6107E0FB68154A934202D11A
S1134140144B7B6100E01BE07869FFF73FFAB8602D
S1134150BB685A017B68B2FBF3F33B613B69203BCC
S11341603B613B69DB003B613A6947F6F8731340F6
S11341703B61F8680421FFF7B7FFFB683A69DA602E
S11341801837BD4680BD00BF0040084070071600C8
S1134190004408407017180080B584B000AF786000
S11341A00B46FB707B68104A934203D07B680F4A2E
S11341B0934200D100BFFB78DB43FB60FB6803F054
S11341C00503FB60FB685B00FB60FB78FA68134344
S11341D0FB6078680221FFF787FF7B68FA685A6002
S11341E01037BD4680BD00BF004008400044084071
S11341F080B483B000AF78600B46FB70FB78002B73
S113420008D000BF7B685B6C002BFBD17B6801226C
S11342101A6402E07B6800221A640C37BD465DF81C
S1134220047B704780B582B000AF786039607B68EA
S11342301B4A934203D07B681A4A934200D100BFC1
S113424078680221FFF750FF7B680A225A60786879
S11342500121FFF7CDFF7B681B6823F01C033A683C
S1134260127B13433A68527B13433A68927B1A4396
S11342707B681A603B685A683B689B68786811469B
S11342801A46FFF749FF3B681B781A467B685A6059
S113429078680021FFF7ACFF0837BD4680BD00BF3A
S11342A0004008400044084080B582B000AF786008
S11342B07B68174A934203D07B68164A934200D125
S11342C000BF78680121FFF793FF7B68EA225A60F8
S11342D07B6800221A607B680022DA607B68002217
S11342E01A617B6800225A617B6800229A637B68AA
S11342F040F2F9725A637B680022DA637B68002219
S11343005A6578680021FFF773FF0837BD4680BD02
S1134310004008400044084080B483B000AF786097
S113432000BF7B689B6803F02003002BF9D07B68F7
S1134330DB69DBB218460C37BD465DF8047B704779
S113434080B582B000AF78600B46FB7000BF7B681D
S11343509B6803F01003002BF9D078684021FFF725
S1134360C3FEFA787B689A620837BD4680BD00BFF9
S113437080B487B000AFF860B9607A60FB6803F17D
S11343800473DA00BB6813449B007B617B697A6821
S11343901A601C37BD465DF8047B704780B485B055
S11343A000AF786039607B68002B02D0012B03D00A
S11343B008E0074BFB6002E0064BFB6000BFFB68B4
S11343C03A681A601437BD465DF8047B704700BF35
S11343D0080008400C00084080B582B000AF0346D6
S11343E0FB71FB79034800211A46FFF7C1FF083728
S11343F0BD4680BD0000084080B485B000AF786041
S11344007B681B78002B02D00123FB6001E00023B2
S1134410FB607B685B78002B03D0FB6843F00203EE
S1134420FB607B689B78002B03D0FB6843F004039C
S1134430FB60044AFB6813601437BD465DF8047BD7
S1134440704700BF0000084080B485B000AF7860BA
S1134450194B5B69DBB203F00F03DBB29B00FB7308
S1134460154B1B6903F0C0039B09DAB2FB7B1343B2
S1134470FB737B68FA7B9A700F4B1B69DBB203F00A
S11344803F03DAB27B685A700B4B9B69DBB223F0B3
S11344900F03FB73084BDB6903F0F0031B09DAB26B
S11344A0FB7B1343FB737B68FA7B1A701437BD469E
S11344B05DF8047B704700BFD0FF0FE080B483B089
S11344C000AF78607B680D4A93420BD07B680C4A3E
S11344D0934207D07B680B4A934203D07B680A4A15
S11344E0934201D1012300E0002303F00103DBB276
S11344F018460C37BD465DF8047B70470000014048
S11345000004014000080140000C014080B582B065
S113451000AF786039607868FFF7D0FF3B681B789C
S113452083F00103DBB2002B02D07B6802225A60C5
S11345307B6800225A623B689B781A063B68DB78EA
S11345401B041A433B689B799B021A433B68DB7943
S11345501B0213433A68127A1A433B685B78002BB8
S113456001D0402300E000231A433B685B7A002B10
S113457001D0802300E000231A433B689B7A002B80
S113458001D0202300E000231A433B68DB7A002B90
S113459001D0102300E000231A433B681B79002B51
S11345A002D04FF4005300E000231A433B685B79C8
S11345B0002B02D04FF0805300E000231A433B68E5
S11345C01B7B002B01D0082300E000231A437B68E7
S11345D01A603B681B78002B02D07B6801225A606A
S11345E00837BD4680BD00BF80B586B000AFF86017
S11345F0B9607A60FB70BB68002B03D12448FEF7D6
S1134600E5FFB860FB78202B0CD0202B02DC002BBC
S113461005D03AE0402B08D0602B09D035E01023B8
S11346207B6108E008237B6105E006237B6102E0EF
S113463004237B6100BFBB689A007B69796801FB36
S113464003F35B0813443B617B697A6802FB03F361
S11346503A69B2FBF3F33B613B69043B3B613B6961
S11346609B013B613A690B4B13403B61FB681B6840
S113467023F06002FB681A60FB681A68FB781A432F
S1134680FB681A60FB683A695A611837BD4680BDF9
S113469040810400C0FF1F0080B586B000AFF86001
S11346A0B9607A60BB68002B03D10A48FEF78EFF1D
S11346B0B860BB685A1E7B685B00B2FBF3F37B6196
S11346C07B691B027B61FB687A695A611837BD46B6
S11346D080BD00BF4081040080B485B000AF786025
S11346E00B46FB707B680F4A934207D07B680E4AE7
S11346F0934203D07B680D4A934200D100BFFB78FC
S1134700DB43FB60FB6803F00503FB60FB685A00B6
S11347107B68DA60FA787B68DA601437BD465DF846
S1134720047B704700C0004000C4004000C8004043
S113473080B582B000AF786039607B68204A9342CC
S113474007D07B681F4A934203D07B681E4A93427A
S113475000D100BF786800F09FF83B689B7C002B79
S113476005D07B681B6843F080427B681A603B6815
S1134770DB7C002B07D03B681B7D43F01003DBB2CE
S11347801A467B689A653B685B7B1A463B681B8AC2
S113479013433A68D2891A437B685A603B68596864
S11347A03B689A683B681B7B7868FFF71DFF3B6892
S11347B01B781A467B68DA600837BD4680BD00BFA7
S11347C000C0004000C4004000C8004080B582B072
S11347D000AF786039607B682C4A934207D07B68CD
S11347E02B4A934203D07B682A4A934200D100BFEC
S11347F0786800F051F87B681A683B681B8A43F0BC
S113480001039BB219463B689B7B002B02D04FF4FB
S1134810806300E000230B431A437B681A607B68C3
S11348201A683B681B7D002B02D04FF0005300E058
S113483000231A437B681A603B689B7C002B07D0DB
S11348403B68DB7C43F01003DBB21A467B689A6555
S11348503B681B7B43F480527B685A603B685A6810
S11348603B689B68786811461A46FFF715FF3B685A
S11348705B7B002B02D07B681022DA603B681B78DC
S11348801A467B68DA600837BD4680BD00C0004028
S113489000C4004000C8004080B483B000AF78601A
S11348A07B68204A934207D07B681F4A934203D017
S11348B07B681E4A934200D100BF7B6840F6AA621F
S11348C0DA607B6800221A607B6841F205025A6054
S11348D07B6800229A607B6800225A617B68002210
S11348E0DA647B6841F6F9729A647B6800225A653F
S11348F07B680C4A934202D17B6800221A657B686C
S113490000229A657B68084A934203D07B68074A71
S1134910934202D17B680022DA650C37BD465DF80C
S1134920047B704700C0004000C4004000C8004041
S113493080B483B000AF786000BF7B681B6903F06C
S11349408003002BF9D07B68DB69DBB218460C3797
S1134950BD465DF8047B704780B483B000AF7860D7
S11349600B46FB7000BF7B681B6903F04003002B00
S1134970F9D0FA787B685A6300BF7B681B6903F03F
S11349802003002BF9D07B68DB69DBB218460C37B7
S1134990BD465DF8047B704780B483B000AF786097
S11349A00B46FB7000BF7B681B6903F04003002BC0
S11349B0F9D0FA787B685A630C37BD465DF8047BFE
S11349C0704700BF80B483B000AF0346FB71FB792E
S11349D0012B0BD0022B0BD0002B0BD1094B1B78D6
S11349E0002B01D0002306E0012304E0012302E0B0
S11349F0012300E0012318460C37BD465DF8047B13
S1134A00704700BFB102002080B582B000AF0346FA
S1134A10FB71FB79012B11D0022B11D0002B11D18A
S1134A20FBF77EFF03461A46094B1A70084B1B78A6
S1134A30002B01D0002306E0012304E0012302E05F
S1134A40012300E0012318460837BD4680BD00BF9E
S1134A50B102002080B586B000AFB9607A603B60D7
S1134A600346FB730023FB75FB7B012B11D0022B48
S1134A7011D0002B11D17868B9683A68FCF74AF86C
S1134A800346FB75FB7D002B01D0002306E00123C8
S1134A9004E0012302E0012300E004231846183750
S1134AA0BD4680BD80B586B000AFB9607A603B601A
S1134AB00346FB730023FB75FB7B012B11D0022BF8
S1134AC011D0002B11D17868B9683A68FCF7BAF8AC
S1134AD00346FB75FB7D002B01D0002306E0012378
S1134AE004E0012302E0012300E004231846183700
S1134AF0BD4680BD80B485B000AF03463A60FB710B
S1134B000B46BB71FB79012B07D0022B0FD0002B76
S1134B1011D10123FB73FB7B0EE0BB79002B02D187
S1134B200023FB7301E00423FB73FB7B04E00123FC
S1134B30FB73FB7B00E0042318461437BD465DF885
S1134B40047B704780B485B000AF78607B68013324
S1134B501B78FB81FB891B029AB27B681B789BB292
S1134B6013439BB2FB81FB8918461437BD465DF89D
S1134B70047B704780B485B000AF78607B680333F2
S1134B801B78FB60FB681B027A68023212781343BD
S1134B90FB60FB681B027A68013212781343FB60E6
S1134BA0FB681B027A6812781343FB60FB681846A3
S1134BB01437BD465DF8047B704700BF80B483B0F2
S1134BC000AF78600B467B807B685A1C7A607A88D9
S1134BD0D2B21A707B881B0A7B807B685A1C7A606D
S1134BE07A88D2B21A700C37BD465DF8047B7047E0
S1134BF080B483B000AF786039607B685A1C7A60F7
S1134C003A68D2B21A703B681B0A3B607B685A1C34
S1134C107A603A68D2B21A703B681B0A3B607B68C0
S1134C205A1C7A603A68D2B21A703B681B0A3B601D
S1134C307B685A1C7A603A68D2B21A700C37BD4647
S1134C405DF8047B704700BF80B487B000AFF860A4
S1134C50B9607A60FB687B61BB683B617B68002B51
S1134C600DD07B695A1C7A613A69511C39611278FA
S1134C701A707B68013B7B607B68002BF1D11C3789
S1134C80BD465DF8047B704780B487B000AFF86020
S1134C90B9607A60FB687B617B695A1C7A61BA6887
S1134CA0D2B21A707B68013B7B607B68002BF3D126
S1134CB01C37BD465DF8047B704700BF80B489B0E3
S1134CC000AFF860B9607A60FB68FB61BB68BB61E8
S1134CD000237B61FB695A1CFA611B781946BB6986
S1134CE05A1CBA611B78CB1A7B617B68013B7B60E1
S1134CF07B68002B02D07B69002BEBD07B691846C4
S1134D002437BD465DF8047B704700BF80B483B090
S1134D1000AF7860396002E07B6801337B607B68B8
S1134D201B78002B05D07B681B781A463B689A4297
S1134D30F2D17B681B7818460C37BD465DF8047BBE
S1134D40704700BF80B586B000AF78600023FB7366
S1134D507B68DB78002B36D07B68DB6A7B617B6801
S1134D605A787B683033104619467A690123FFF775
S1134D7099FE0346002B02D00123FB7323E07B68DA
S1134D800022DA707B681B6A7A69D21A7B689B6995
S1134D909A4218D27B689B783B6111E07B689B69DF
S1134DA07A6913447B617B685A787B683033104698
S1134DB019467A690123FFF775FE3B69013B3B61A4
S1134DC03B69012BEAD8FB7B18461837BD4680BDEA
S1134DD080B584B000AF786039600023FB737B68D2
S1134DE0DA6A3B689A421CD07868FFF7ABFF034647
S1134DF0FB73FB7B002B14D17B685A787B683033C0
S1134E00104619463A680123FFF724FE0346002B97
S1134E1004D04FF0FF333B600123FB737B683A6897
S1134E20DA62FB7B18461037BD4680BD80B584B07E
S1134E3000AF78607868FFF785FF0346FB73FB7B60
S1134E40002B57D17B681B78032B47D17B681B79D8
S1134E50012B43D17B683033184600214FF4007294
S1134E60FFF712FF7B6803F22E2318464AF65521FA
S1134E70FFF7A4FE7B68303318462149FFF7B8FEDC
S1134E807B6803F5057318461E49FFF7B1FE7B687E
S1134E9003F506727B681B6910461946FFF7A8FEE6
S1134EA07B6803F507727B68DB6810461946FFF7D9
S1134EB09FFE7B68DB695A1C7B68DA627B685978E1
S1134EC07B6803F130027B68DB6A084611461A46A8
S1134ED00123FFF7E7FD7B6800221A717B685B788A
S1134EE0184600210022FFF705FE0346002B01D0DF
S1134EF00123FB73FB7B18461037BD4680BD00BF02
S1134F00525261417272416180B483B000AF7860E3
S1134F1039603B68023B3B607B685B699A1E3B6877
S1134F209A4201D8002308E07B685B891A463B68F3
S1134F3003FB02F27B689B6A134418460C37BD4698
S1134F405DF8047B704700BF80B586B000AF786021
S1134F5039607B681B683B613B68012B04D93B6962
S1134F605A693B689A4202D801237B6186E04FF07C
S1134F70FF337B613B691B78022B47D0032B5FD047
S1134F80012B79D13B68FB60FB685B08FA6813442A
S1134F90FB603B691A6AFB685B0A1344386919466B
S1134FA0FFF716FF0346002B00D067E0FB685A1C8E
S1134FB0FA60C3F308033A69134493F83030BB60D2
S1134FC03B691A6AFB685B0A134438691946FFF7A0
S1134FD0FFFE0346002B00D050E0FB68C3F3080338
S1134FE03A69134493F830301B021A46BB681343E2
S1134FF0BB603B6803F00103002B02D0BB681B09B4
S113500002E0BB68C3F30B037B6137E03B691A6AB8
S11350103B681B0A134438691946FFF7D9FE034657
S1135020002B00D02AE03B685B0003F4FF733033AD
S11350303A6913441846FFF785FD03467B611DE07A
S11350403B691A6A3B68DB09134438691946FFF760
S1135050BFFE0346002B00D010E03B689B0003F426
S1135060FE7330333A6913441846FFF783FD034651
S113507023F070437B6101E001237B617B69184667
S11350801837BD4680BD00BF90B589B000AFF86049
S1135090B9607A600223FB77BB68012B40F2CD80B4
S11350A0FB685A69BB689A4240F2C780FB681B7868
S11350B0022B72D0032B00F09080012B40F0BD80B6
S11350C0BB68BB61BB695B08BA691344BB61FB681D
S11350D01A6ABB695B0A1344F8681946FFF778FE3D
S11350E00346FB77FB7F002B00D0A6E0BB695A1C6C
S11350F0BA61C3F308033033FA6813447B61BB68B5
S113510003F00103002B0DD07B691B78DBB203F0A5
S11351100F03DAB27B68DBB21B01DBB21343DBB2F1
S1135120DBB201E07B68DBB27A691370FB680122B1
S1135130DA70FB681A6ABB695B0A1344F86819469B
S1135140FFF746FE0346FB77FB7F002B00D074E09D
S1135150BB69C3F308033033FA6813447B61BB684B
S113516003F00103002B03D07B681B09DBB20EE0C4
S11351707B691B78DBB223F00F03DAB27B681B0A6E
S1135180DBB203F00F03DBB21343DBB2DBB27A69A9
S11351901370FB680122DA704FE0FB681A6ABB687F
S11351A01B0A1344F8681946FFF712FE0346FB77FF
S11351B0FB7F002B00D040E0BB685B0003F4FF736F
S11351C03033FA681A447B689BB210461946FFF7DD
S11351D0F5FCFB680122DA702FE0FB681A6ABB68F1
S11351E0DB091344F8681946FFF7F2FD0346FB7721
S11351F0FB7F002B00D020E07B6823F07044BB6869
S11352009B0003F4FE733033FA6813441846FFF727
S1135210B1FC034603F0704323437B60BB689B00EF
S113522003F4FE733033FA68134418467968FFF7C1
S1135230DFFCFB680122DA7000BFFB7F18462437CD
S1135240BD4690BD80B588B000AFF860B9607A60A3
S11352500023FB77FB681B68BB61BB68012B04D987
S1135260BB695A69BB689A4201D802234AE07B6849
S1135270002B0CD0B86979684FF0FF32FFF704FFB8
S11352800346FB77FB7F002B01D0FB7F3AE0F868F5
S1135290B968FFF759FE78617B69002B00D130E0D3
S11352A07B69012B01D102232CE07B69B3F1FF3F21
S11352B001D1012326E0B869B9680022FFF7E4FEB2
S11352C00346FB77FB7F002B01D0FB7F1AE0BB6911
S11352D01A69BB695B69023B9A420BD2BB691B69C1
S11352E05A1CBB691A61BB691B7943F00103DAB22A
S11352F0BB691A717B69BB60BB695A69BB689A4216
S1135300C5D8002318462037BD4680BD80B588B077
S113531000AF786039607B681B683B613B68002B99
S11353200DD13B69DB68BB61BB69002B04D03B69D1
S11353305A69BB699A421BD80123BB6118E078689B
S11353403968FFF701FEF860FB68012B01D80123DF
S113535072E0FB68B3F1FF3F01D1FB686CE03B698D
S11353605A69FB689A4201D9FB6865E03B68BB61F6
S1135370BB69FB61FB690133FB613B695A69FB69EA
S11353809A4207D80223FB61FA69BB699A4201D9A0
S1135390002351E07868F969FFF7D6FDF860FB68EF
S11353A0002B0CD100BF3869F9694FF0FF32FFF7C9
S11353B06BFE0346FB75FB7D002B1AD10FE0FB68E7
S11353C0012B03D0FB68B3F1FF3F01D1FB6833E04D
S11353D0FA69BB699A4201D100232DE0CAE73B6810
S11353E0002B06D038693968FA69FFF74DFE034689
S11353F0FB75FB7D002B16D13B69FA69DA603B69CA
S11354001A693B695B69023B9A4204D83B691B6990
S11354105A1E3B691A613B691B7943F00103DAB2F6
S11354203B691A7107E0FB7D012B02D14FF0FF337A
S113543000E00123FB61FB6918462037BD4680BDAF
S113544080B586B000AF786039607B681B683B61CB
S11354503B68B3F5001F04D23B6803F01F03002B25
S113546001D0022362E07B683A681A617B689B681A
S11354707B617B69002B06D13B691B78022B02D927
S11354803B695B6A7B617B69002B0CD13B685B09E0
S11354903A691289934201D3022347E03B695A6A6D
S11354A07B689A6129E03B695B895B02FB6019E0D8
S11354B07B6818467969FFF747FD78617B69B3F12A
S11354C0FF3F01D1012331E07B69012B04D93B6902
S11354D05A697B699A4201D8022327E03A68FB683B
S11354E0D31A3B603A68FB689A42E1D23869796919
S11354F0FFF70AFD02467B689A617B687A695A6104
S11355007B689B69002B01D102230FE07B689A69B9
S11355103B685B0A1A447B689A613B68C3F30803DF
S113552030333A691A447B68DA6100231846183725
S1135530BD4680BD80B586B000AF786039607B68B9
S11355401B68FB607B681B692033BB607B689B69BD
S1135550002B03D0BB68B3F5001F01D30423A9E0DB
S1135560BB68C3F30803002B40F098807B689B69F9
S11355705A1C7B689A617B685B69002B0BD1BB6802
S11355805B09FA6812899342C0F088807B68002224
S11355909A6104238EE0BB685B0AFA685289013A77
S11355A01340002B7AD17A687B685B6910461946F0
S11355B0FFF7CAFC78617B69012B01D8022379E0EB
S11355C07B69B3F1FF3F01D1012373E0FB685A69A2
S11355D07B699A4258D83B68002B04D17B6800222F
S11355E09A61042366E07A687B685B691046194611
S11355F0FFF78CFE78617B69002B01D1072359E00A
S11356007B69012B01D1022354E07B69B3F1FF3F95
S113561001D101234EE0F868FFF794FB0346002B09
S113562001D0012346E0FB683033184600214FF4D3
S11356300072FFF729FB00233B61F8687969FFF7E3
S113564063FC0246FB68DA6212E0FB680122DA704E
S1135650F868FFF777FB0346002B01D0012329E00C
S11356603B6901333B61FB68DB6A5A1CFB68DA6205
S1135670FB685B891A463B699A42E6D8FB68DA6A9A
S11356803B69D21AFB68DA627B687A695A61F86806
S11356907969FFF739FC02467B689A617B68BA68CE
S11356A01A61BB68C3F308033033FA681A447B6891
S11356B0DA61002318461837BD4680BD80B586B030
S11356C000AF786039607B681B68FB6078680021F4
S11356D0FFF7B6FE0346FB75FB7D002B2BD10023A1
S11356E03B617B689B69F8681946FFF771FB0346C9
S11356F0FB75FB7D002B00D01DE07B68DB691B780C
S1135700E52B04D07B68DB691B78002B08D13B694F
S113571001333B613A693B689A4200D10BE001E0F6
S113572000233B6178680121FFF704FF0346FB7502
S1135730FB7D002BD5D0FB7D042B01D10723FB750A
S1135740FB7D18461837BD4680BD00BF80B584B0C8
S113575000AF786039603B681A331846FFF7F2F9F6
S11357600346FB607B681B78032B09D13B68143329
S11357701846FFF7E7F903461B04FA681343FB6076
S1135780FB6818461037BD4680BD00BF80B584B0A5
S113579000AFF860B9607A60BB6803F11A027B68F5
S11357A09BB210461946FFF709FAFB681B78032BD6
S11357B009D1BB6803F114027B681B0C9BB2104631
S11357C01946FFF7FBF91037BD4680BD80B586B09A
S11357D000AF78607B681B683B6178680021FFF745
S11357E02FFE0346FB75FB7D002B01D0FB7D3DE0C6
S11357F07B689B6938691946FFF7EAFA0346FB752B
S1135800FB7D002B00D030E07B68DB691B78FB73E9
S1135810FB7B002B02D10423FB7526E07B68DB694C
S11358200B331B7803F03F03DAB27B689A717B6811
S1135830DB690B331B7803F00803002B0CD17B6866
S1135840DA697B682033104619460B22FFF736FAD3
S11358500346002B00D108E078680021FFF76AFEB8
S11358600346FB75FB7D002BC2D0FB7D1846183721
S1135870BD4680BD80B584B000AF78607B681B688E
S1135880BB6078680121FFF719FF0346FB73FB7BBC
S1135890002B1DD17B689B69B8681946FFF798FAFD
S11358A00346FB73FB7B002B12D17B68DB69184634
S11358B000212022FFF7E8F97B68DA697B6820334E
S11358C0104619460B22FFF7BFF9BB680122DA70B4
S11358D0FB7B18461037BD4680BD00BF80B58AB03B
S11358E000AF786039603B681B687B617B6820335C
S11358F03B61386920210B22FFF7C6F90023BB6105
S1135900BB69FB6108233B62FB695A1CFA617A6933
S113591013441B7887F8273097F82730202B00D8BA
S11359208AE097F827302F2B03D097F827305C2B89
S113593010D102E0FB690133FB617A69FB6913440E
S11359401B782F2BF6D07A69FB6913441B785C2BE8
S1135950F0D071E097F827302E2B03D0BA693B6A58
S11359609A420DD33B6A0B2B03D097F827302E2B8A
S113597001D006237CE00823BB610B233B625AE081
S113598097F82730802B03D997F827309F2B07D916
S113599097F82730DF2B2ED997F82730FC2B2AD8FD
S11359A0FB695A1CFA617A6913441B78FB73FB7B0D
S11359B03F2B02D9FB7B7E2B06D9FB7B5BB2002BF2
S11359C007DAFB7BFC2B04D83B6A5A1EBB699A425C
S11359D001D806234CE0BB695A1CBA613A691344E6
S11359E097F827201A70BB695A1CBA613A691344A4
S11359F0FA7B1A701FE097F827301F481946FFF703
S1135A0085F90346002B01D0062331E097F82730AF
S1135A10602B08D997F827307A2B04D897F82730C9
S1135A20203B87F82730BB695A1CBA613A69134492
S1135A3097F827201A7067E77A69FB691A443B686C
S1135A401A60BB69002B01D1062311E03B691B7866
S1135A50E52B02D13B6905221A703B690B3397F899
S1135A602720202A01D8042200E000221A700023F3
S1135A7018462837BD4680BDA0CF000080B586B04B
S1135A8000AF786039607B683B613B691B68FB60F1
S1135A9002E03B6801333B603B681B782F2BF8D056
S1135AA03B681B785C2BF4D03B6900229A603B680E
S1135AB01B781F2B0AD87B68802283F82B207868F8
S1135AC00021FFF7BDFC0346FB7540E03B467868C8
S1135AD01946FFF703FF0346FB75FB7D002B00D03F
S1135AE035E07868FFF772FE0346FB757B6893F830
S1135AF02B30FB72FB7D002B0BD0FB7D042B07D1DD
S1135B00FB7A03F00403002B02D10523FB751EE08E
S1135B101DE0FB7A03F00403002B00D017E03B697F
S1135B209B7903F01003002B02D10523FB750EE0D3
S1135B307B681B69C3F308033033FA681344F868BD
S1135B401946FFF703FE02463B699A60BEE7FB7DF8
S1135B5018461837BD4680BD80B487B000AF786062
S1135B604FF0FF333B617B681B68002B31D07B68AF
S1135B701B687B6102E07B6901337B617B691B7875
S1135B80202B03D97B691B783A2BF4D17B691B78D2
S1135B903A2B1CD17B681B68FB60FB685A1CFA60BB
S1135BA01B78303BBB60BB68092B0ED8FA687B6955
S1135BB09A420AD1BB68002B07D1BB683B617B6961
S1135BC001337B617B687A691A603B6902E00023D8
S1135BD03B613B6918461C37BD465DF8047B704742
S1135BE080B582B000AF786039607B680022DA70DB
S1135BF07B684FF0FF32DA6278683968FFF7E8F8BB
S1135C000346002B01D0042335E07B6803F22E23E6
S1135C101846FEF797FF03461A464AF655239A425A
S1135C2001D0032327E07B6893F83030E92B09D0B7
S1135C307B6893F83030EB2B1CD17B6893F83230BF
S1135C40902B17D17B6866331846FEF793FF034603
S1135C5023F07F430A4A934201D100230BE07B687F
S1135C6082331846FEF786FF0246064B9A4201D15C
S1135C70002300E0022318460837BD4680BD00BF5C
S1135C80464154004641543380B596B000AFF860A5
S1135C90B9601346FB71BB6800221A60F868FFF70D
S1135CA05BFFF863FB6B002B01DA0B231CE2A44AB5
S1135CB0FB6B52F82330BB63BB6B002B01D10C236D
S1135CC012E2BB68BA6B1A60FB7923F00103FB7123
S1135CD0BB6B1B78002B1AD0BB6B5B781846FEF7A6
