S01E00006C6D69635F616E645F7465737470726F6A6563745F69412E73333780
S113000000000220AD010000D9010000D901000068
S1130010D9010000D9010000D9010000D901000074
S1130020D9010000D9010000D9010000D901000064
S1130030D9010000D9010000D9010000D901000054
S1130040B52A0000A15C0000D9010000D90100001C
S1130050D9010000D9010000D9010000D901000034
S1130060D9010000D9010000D9010000415D000060
S1130070D9010000D9010000D9010000D901000014
S1130080D9010000D9010000ED180000B5180000E6
S1130090D9010000D9010000D9010000D9010000F4
S11300A0811A0000D9010000D9010000D901000023
S11300B0D9010000D9010000895D0000D9010000C8
S11300C0D9010000D9010000D9010000D9010000C4
S11300D0D9010000D9010000D901000010B5054C78
S11300E0237833B9044B13B10448AFF300800123E0
S11300F0237010BD88000020000000000CCA00001E
S1130100084B10B51BB108480849AFF300800848F4
S1130110036803B910BD074B002BFBD0BDE81040AA
S1130120184700BF000000000CCA00008C0000202B
S11301308000002000000000154B002B08BF134B6B
S11301409D46A3F5803A00218B460F461348144A76
S1130150121A0AF0D0FB0F4B002B00D098470E4B1D
S1130160002B00D098470020002104000D000D480A
S1130170002802D00C48AFF300800AF08BFB20006B
S1130180290009F04BFF0AF071FB00BF00000800D2
S11301900000022000000000000000008800002091
S11301A060100020000000000000000006488047A6
S11301B00649074A074B9A42BEBF51F8040B42F85E
S11301C0040BF8E7FFF7B8FF9D03000018CA00000E
S11301D00000002084000020FEE700BF294AD36A03
S11301E003F47053B3F5805F2AD0B3F5005F24D0D5
S11301F0B3F5006F11D0D36803F4E063B3F5007F67
S11302003DD020D9B3F5806F37D0B3F5A06F32D08D
S1130210B3F5407F24D0002301E01B4B1B68194A2F
S11302201A4910685268C0F382300130B3FBF0F011
S113023002F00F03D84008607047154B1B68EEE7C7
S11302404FF40043EBE76BB1B3F5807FE3D1114B7F
S1130250114AD86C114BB0F1985F28BF1346DEE702
S11302600F4BDCE70B4B0F4AD86C0F4BB0F1985F88
S113027028BF1346D3E70D4BD1E70D4BCFE70D4B0A
S1130280CDE700BF00800C400400002008000020DF
S113029000000020B081E00F40B56400C0CF6A00C8
S11302A0809FD500804F120040420F00003FAB01F9
S11302B0406F4001C0D8A70000487047006CDC02C2
S11302C0274AD36A03F47053B3F5805F24D0B3F59F
S11302D0005F1ED0B3F5006F11D0D36803F4E06360
S11302E0B3F5007F39D01AD9B3F5806F33D0B3F5A5
S11302F0A06F2ED0B3F5407F1FD0002001E0194B32
S11303001868174B1B68C3F382330133B0FBF3F057
S11303107047154B1868F4E74FF40040F1E773B1E8
S1130320B3F5807FE9D1114A114BD06C114AB0F179
S1130330985F2CBF18461046E3E70F48E1E70B4AE5
S11303400E4BD06C0E4AB0F1985F2CBF1846104685
S1130350D7E70C48D5E70C48D3E70C48D1E700BFF2
S113036000800C400400002000000020B081E00F59
S113037040B56400C0CF6A00809FD500804F120052
S113038040420F00003FAB01406F4001C0D8A700BE
S1130390014B1868704700BF04000020704700BF7D
S11303A04FF40040704700BF4FF47A70704700BFAD
S11303B0014B1868704700BF0000002008B50B48C7
S11303C0012102F055F80420024600230A2102F01C
S11303D0FDFB0420012102F0AFFB054B4FF48062CA
S11303E0C3F8A420BDE8084001F0A2B900D204007B
S11303F0006000402DE9F8430646464C4FF4806502
S1130400C4F8A4504FF47A708846174601F0C4F932
S1130410E6B9002F4AD0C4F8A050B8F1000F50D06C
S1130420502001F0B9F9C4F8A4500F2001F0B4F938
S11304305020C4F8A05001F0AFF9C4F8A4500F2024
S113044001F0AAF9C4F8A050BDE8F883C7B1B8F127
S1130450000F38D12F4604265020C4F8A07001F0B4
S11304609BF9C4F8A4500F2001F096F9013EDFF87F
S1130470A4804FF48069EFD1C8F8A090BDE8F88358
S1130480B8F1000F34D02F4605265020C4F8A070D0
S113049001F082F9C4F8A4500F2001F07DF9013E67
S11304A0DFF870804FF48069EFD1E5E7B8F1000F11
S11304B0BED1C4F8A4504FF47A70BDE8F84301F0FB
S11304C06BB9BDE8F883A94606265020C4F8A0906D
S11304D001F062F9C4F8A4500F2001F05DF9013E67
S11304E00C4F4FF48068F0D1C7F8A080BDE8F883C2
S11304F0A94603265020C4F8A09001F04DF9C4F891
S1130500A4500F2001F048F9013E024F4FF48068D7
S1130510F0D1E9E700600040044B4FF48062C3F877
S1130520A4204FF47A7001F037B900BF0060004096
S1130530002070B501210346042202F047FB8C4BD6
S113054002221A61012001F05FFB012001F048FB47
S1130550FF2001F097FB072001F0CEF80A24FF20CA
S113056001F090FB013CFAD1012001F04DFBFF208A
S113057001F088FB402001F085FB204601F082FB5E
S1130580204601F07FFB204601F07CFB204601F071
S113059079FB952001F076FBFF2001F05FFB5925E4
S11305A0044604E001F05AFB013D04463DD0012C11
S11305B04FF0FF00F6D1204601F012FBFF2001F0BE
S11305C061FB204601F020FBFF2001F05BFB48208B
S11305D001F058FB002001F055FB002001F052FB14
S11305E0204601F04FFBAA2001F04CFB872001F0CC
S11305F049FBFF2001F032FB054605E001F02EFB2C
S11306000134642C054610D0012D4FF0FF00F5D1C4
S113061001F024FBFF2001F021FBFF2001F01EFB71
S1130620FF2001F01BFBAA2807D0012001F0D8FA13
S1130630FF2001F027FB002070BD284601F0D0FA0E
S1130640FF2001F01FFB012001F0DEFAFF2001F082
S113065019FB772001F016FB002001F013FB0020AA
S113066001F010FB002001F00DFB002001F00AFB5B
S1130670652001F007FB012001F0B2FAFF2001F030
S113068001FB012001F0C0FAFF2001F0FBFA692010
S113069001F0F8FA402001F0F5FA002001F0F2FA36
S11306A0002001F0EFFA002001F0ECFA772001F0CD
S11306B0E9FAFF2001F0D2FA06460325FF20002EB6
S11306C04FD001F0CBFA013D0646F7D101340720A3
S11306D001F012F8642CA8D0002EB4D1012001F04E
S11306E07FFAFF2001F0CEFA012001F08DFAFF20FD
S11306F001F0C8FA7A2001F0C5FA002001F0C2FA2C
S1130700002001F0BFFA002001F0BCFA002001F043
S1130710B9FA752001F0B6FAFF2001F09FFA6324BC
S1130720034605E001F09AFA013C03463FF47DAF2D
S1130730FF20002BF6D101F091FAC0287FF475AFA9
S1130740FF2001F08BFAFF2001F088FAFF2001F06E
S113075085FA012001F044FAFF2001F093FA012008
S113076070BD072000F0C8FF632CB7D15DE700BF60
S113077000600040014B02225A6170470060004053
S11307802DE9F047002A6DD007460E4640F20225B7
S113079000EB02094FF00108012001F035FAFF20B7
S11307A001F070FA512001F06DFA380E01F06AFA86
S11307B0C7F3074001F066FAC7F3072001F062FAB5
S11307C0F8B201F05FFAFF2001F05CFAFF2001F0BB
S11307D045FA03460924FF202BB101F03FFA013CFE
S11307E00346F8D1A046FF2001F038FA82460320E0
S11307F000F082FF0924BAF1FE0F4FF0FF001AD077
S113080001F02CFA8246032000F076FF013CF2D17D
S11308100320A04600F070FF012001F0E1F9FF2061
S113082001F030FA0137032000F066FF4F45B3D1E1
S11308304046BDE8F087032000F05EFFB8F1000FEA
S1130840EAD0002405E001F009FA30550134AC4245
S1130850E2D0B4F5007F4FF0FF00F4DBFF2001F09D
S1130860FDF9F3E74FF001084046BDE8F08700BF0B
S11308702DE9F843002A63D00646884687184FF0CE
S11308800109012001F0C0F9FF2001F0FBF9582013
S113089001F0F8F9300E01F0F5F9C6F3074001F064
S11308A0F1F9C6F3072001F0EDF9F0B201F0EAF92D
S11308B0FF2001F0E7F9FF2001F0D0F903460924F5
S11308C0FF20D3B101F0CAF9013C0346F8D1FF205F
S11308D001F0D8F9FE20A14601F0D4F9012001F07D
S11308E07FF9FF2001F0CEF90136032000F004FF68
S11308F0BE42C6D14846BDE8F88301F0C3F9FE20E4
S113090001F0C0F9B9F1000FE8D008F1FF3408F2A2
S1130910012514F8010F01F0A1F9AC42F9D1FF202F
S113092001F09CF9FF284FF00300D7D000F0E4FE5B
S1130930FF2001F093F9FF284FF00300F6D1CDE733
S11309404FF001094846BDE8F88300BF2DE9F04F98
S113095085B004AB1A46242322F8043D11460192C3
S11309600AF024F80646002861D0334F3D68B5F5F7
S1130970007F5CD0DFF8C4A0DFF8C480B5F5007F49
S113098011DADAF8001001354B1CB3F5007FCAF810
S113099000304FF0240008BF00233D6008F8010038
S11309A008BFCAF800303046002409F0DFFFA14632
S11309B006F1FF3B18E01BF8013F0D2B16D0B5F5EF
S11309C0007F10DADAF800000135411C08F8003025
S11309D0B1F5007F3046CAF800103D6008BFCAF880
S11309E0009009F0C3FF01348442E4D3B5F5007FDD
S11309F011DADAF8001001354B1CB3F5007FCAF8A0
S1130A0000304FF00A0008BF00233D6008F80100E1
S1130A1008BFCAF800300020019909F0C7FF064654
S1130A2008B13D68AAE7012005B0BDE8F08F4FF09A
S1130A30FF3005B0BDE8F08FA4000020A80000201E
S1130A40B000002030B5C1B000214FF480720546DB
S1130A50684609F050FF072000F04EFE0DF1FF3408
S1130A6001E004F8010F00F0FFFF4028F9D1294606
S1130A70684609F083FF2421041C684618BF01243A
S1130A8009F066FF70B16846FFF760FF002809DDD2
S1130A90002001460122FFF7ADFC072000F02CFEE8
S1130AA0FFF73AFD204641B030BD00BF2DE9F041CB
S1130AB00546064655F8080F86B08846696800243E
S1130AC002AB0494059403C32D89174601A91D8024
S1130AD002A80A220AF044F808EB0705010E020CEA
S1130AE0030A08F80710E8706A70AB7096F813C030
S1130AF096F814E0737D01A902A80A2202940394D3
S1130B008DF808C08DF809E08DF80A30ADF8104072
S1130B100AF026F8C0F3072368712B7196F81CE0DD
S1130B20737F02A801A90A2202940394ADF810402D
S1130B308DF808E08DF809300AF012F80637A8712C
S1130B40F8B206B0BDE8F0812DE9F04F04464078D4
S1130B5093B000232C2803919146059306930793A1
S1130B60089309930A930B930C930D930E930F938D
S1130B701093ADF844302ED0A3788DF814002C2BAC
S1130B8029D0E2788DF815302C2A24D023798DF8D9
S1130B9016202C2B1FD062798DF817302C2A1AD0EE
S1130BA0A3798DF818202C2B15D0E2798DF8193003
S1130BB02C2A10D0237A8DF81A202C2B0BD0627A91
S1130BC08DF81B302C2A06D0A37A8DF81C202C2BF0
S1130BD018BF8DF81D3005A804A9102209F0C0FF24
S1130BE0039B1870B9F1000F5AD000230193984663
S1130BF01F461D4601230293059506950795089502
S1130C0009950A950B950C950D950E950F951095D4
S1130C10ADF844504FF0000B04EB080608E016F85A
S1130C200A1012AB0A2903EB0A0017D000F8341C8F
S1130C30204609F09BFE5FFA8BFA82450BF1010B0B
S1130C40EDD305A8194909F099FE98B10137FFB20F
S1130C504F45D1D1019813B0BDE8F08F08F10108D8
S1130C6008EB0A0305A8114903F0FF0809F086FE02
S1130C700028EBD105A80E4909F080FE0028E5D133
S1130C80029E05A803993246FFF710FF019B3044EA
S1130C9003F1010AC3B202935FFA8AF30193D5E721
S1130CA04846CDF8049013B0BDE8F08F90B300002F
S1130CB09CB3000008B5002003460321042201F080
S1130CC085FF00F02DFE00F09FFE00214FF400721E
S1130CD0054809F010FE05480549064A002303604B
S1130CE00B60136008BD00BFB0000020A40000200A
S1130CF0AC000020A80000202DE9F04F85B040B1E1
S1130D00012800F02381022814D0002005B0BDE89A
S1130D10F08FA44B01211B6868461A0CADF8003013
S1130D208DF8022000F076FE9F48FFF78BFE05B099
S1130D30BDE8F08F9D4B4FEAE17883FB0102C8EBDD
S1130D40A20883FB082C4FEAE872C2EBAC0C83FBCD
S1130D500C2E4FEAEC72C2EBAE0E83FB0E274FEA69
S1130D60EE72C2EBA70783FB0726FA17C2EBA606AF
S1130D7083FB0625F217C2EBA50583FB0520EA17C2
S1130D80C2EBA00083FB0024C217C2EBA40283FBC6
S1130D900249D417C4EBA90483FB04934FEAE47912
S1130DA0C9EBA30303EB83030CEB8C0AA4EB43030F
S1130DB00EEB8E0907EB870BA8EB4A085B0006EBEA
S1130DC0860AACEB490CAEEB4B0E05EB850900EB48
S1130DD0800BA7EB4A0704EB840402EB820A03F0BE
S1130DE0FE03A6EB4906A5EB4B05A0EB4A00A2EBDC
S1130DF04404092B8DF808808DF807C08DF806E0AF
S1130E008DF805708DF804608DF803508DF802009C
S1130E108DF8014009D9664AA2FB0302D20802EB0D
S1130E208202A3EB4203DBB201339DF80120092ABD
S1130E3040F2B4805E4C581CA4FB0243DB0803EB75
S1130E408303A2EB4302D3B218449DF8022052005C
S1130E50D3B2092B40F2A080554A0130A2FB0342D1
S1130E60D20802EB8202A3EB4202D2B283189DF8AD
S1130E700320092A09D94E4C0133A4FB0204E408D7
S1130E8004EB8404A2EB4402D2B29C189DF8042023
S1130E905200D3B2092B73D823449DF805000928C6
S1130EA009D9434A0133A2FB0042D20802EB820271
S1130EB0A0EB4200C0B203449DF806004000C0B25B
S1130EC0092851D8C4189DF80730092B09D9384A84
S1130ED00134A2FB0302D20802EB8202A3EB420319
S1130EE0DBB223449DF808406400E4B2092C57D9CE
S1130EF02F4A0133A2FB0402D20802EB8202A4EBC4
S1130F004204E4B21C440A4668462A4909F0FCFC3F
S1130F10684609F02BFD0246254B04EBC404A3FBF1
S1130F200413DB0803EB8303A4EB4304411E04AB6B
S1130F301A44C9B26846303402F8124C00F06AFD13
S1130F401D48FFF77FFD05B0BDE8F08F1B4B93E80C
S1130F50030000908DF804106846032100F05AFD48
S1130F601748FFF76FFDD1E6114A5C1CA2FB002372
S1130F70DB0803EB8303A0EB4300C3B21C44A2E7EA
S1130F800B4A0134A2FB0302D20802EB8202A3EB58
S1130F904202D2B2A31880E7034468E7D01854E7AA
S1130FA01C44B0E7A0B30000A4B300006766666603
S1130FB0CDCCCCCCB8B30000C0B30000A8B30000C3
S1130FC0B0B300002DE9F84F164680460F46104690
S1130FD000214FF40072994609F08DFCDFF888C0B7
S1130FE0DCF800B0BBF1000F3CD0DFF880A0002398
S1130FF01C465946DFF878E0DAF80020751E10E048
S11310001EF802000132B2F5007F01F1FF3108BF82
S11310100022242808BF01338B4605F8010F013450
S113102039B10029ECDC302005F8010F0134002926
S1131030F7D1CCF800B0CAF800205FFA83FBC9F8F6
S11310400040304641465A46FFF77EFDC0EBC000E3
S1131050431C03F0FF03032B38BF00233B605846B7
S1131060BDE8F88F5C46EAE7A4000020AC0000204D
S1131070B0000020F8B50546002000F0C5FD6F1E45
S113108000261B353C4614F8010F00F0E7FDAC4286
S1131090F9D11A2403E0013C24D000F02DFB00F028
S11310A005FEB5284FF00200F5D10125002400E02B
S11310B0013500F0FBFD032D03464FF0020015D06F
S11310C000F01AFB092DF3D1002000F089FD022065
S11310D000F012FB002000F097FDFF2000F0BEFDA1
S11310E02046F8BD0136322ECCD1EDE7A3F1010440
S11310F0B4FA84F4640900F0FFFAD9E770B500206B
S113110000F082FD1E4D00261E4C14F8010F00F065
S1131110A5FDAC42F9D11A2403E0013C24D000F02F
S1131120EBFA00F0C3FDB5284FF00200F5D101251C
S1131130002400E0013500F0B9FD032D03464FF013
S1131140020015D000F0D8FA092DF3D1002000F0E8
S113115047FD022000F0D0FA002000F055FDFF20EA
S113116000F07CFD204670BD0136322ECCD1EDE777
S1131170A3F10104B4FA84F4640900F0BDFAD9E7D8
S113118003B40000CFB3000070B5002000F03CFDB4
S11311901E4D00261E4C14F8010F00F05FFDAC42FA
S11311A0F9D11A2403E0013C24D000F0A5FA00F0A0
S11311B07DFDB5284FF00200F5D10125002400E0A3
S11311C0013500F073FD032D03464FF0020015D0E6
S11311D000F092FA092DF3D1002000F001FD022065
S11311E000F08AFA002000F00FFDFF2000F036FD29
S11311F0204670BD0136322ECCD1EDE7A3F10104B7
S1131200B4FA84F4640900F077FAD9E713B400005F
S113121003B4000070B5002000F0F6FC1E4D00265B
S11312201E4C14F8010B00F019FDAC42F9D11A243C
S113123003E0013C24D000F05FFA00F037FDB5284C
S11312404FF00200F5D10125002400E0013500F043
S11312502DFD032D03464FF0020015D000F04CFA8B
S1131260092DF3D1002000F0BBFC022000F044FA69
S1131270002000F0C9FCFF2000F0F0FC204670BD07
S11312800136322ECCD1EDE7A3F10104B4FA84F493
S1131290640900F031FAD9E79AB4000090B4000070
S11312A070B5002000F09CFC022000F025FA00201C
S11312B000F0AAFCFF2000F0D1FC204D0026204CB9
S11312C014F8010F00F0CAFCAC42F9D11A2403E06F
S11312D0013C1FD000F010FA00F0E8FCB5284FF0F4
S11312E00200F5D102250124002601E00134013574
S11312F000F0DCFC112C03464FF002001AD01A2C2B
S113130011D000F0F9F9592DF0D1002000F068FC5B
S1131310304670BD0136322ED1D1FF26002000F0B8
S11313205FFC304670BD03F00F031E43022000F043
S1131330E3F9DBE71B01DEB2F8E700BF8FB400007E
S113134087B4000070B5002090B000F049FC022082
S113135000F0D2F9002000F057FCFF2000F07EFCE2
S1131360204D0026204C14F8010F00F077FCAC420D
S1131370F9D11A2403E0013C28D000F0BDF900F0B3
S113138095FCB5284FF00200F5D10125002400E0BA
S1131390013500F08BFC064614493246684609F0D4
S11313A0B3FA0821684600F069FA052000F0A4F9B0
S11313B0072D4FF002000DD000F09EF9092DE7D162
S11313C0002000F00DFC204610B070BD0136322E16
S11313D0C8D1F5E7A6F10104B4FA84F4640900F075
S11313E08BF9D5E7CFB30000C7B3000068B40000A1
S11313F02DE9F04F91F81AE00F7AAEF1030EBEFA20
S11314008EFE91F809A091F8205091F8244091F8AB
S1131410219091F8258091F82C203F0491F82DC05B
S113142091F81EB08E7947EA0A672D0491F822A03C
S1131430240445EA096544EA086491F82A901204F0
S113144091F8078042EA0C623E4391F80BC08F7A10
S113145045EA0B0544EA0A0491F81FB091F823A069
S113146042EA090291F82B9046EA082647EA0C2C36
S113147091F80C804F7B45EA0B2544EA0A2491F845
S11314800EB091F80FA0097C4FEA5E1E42EA0922D1
S1131490466080F800E0A0F808C080F80A80C772AF
S11314A080F80CB080F80DA08173056144618261FD
S11314B0BDE8F08F2DE9F04190B000F035FB00203D
S11314C001460346042201F081FB05210320042286
S11314D0002301F07BFB2B4B01221A612A48FFF702
S11314E0C9FD05462948FFF7C5FD04462848FFF70E
S11314F0C1FD7DB1002C14BF054600250AE022463B
S1131500684609F001FA684609F030FAC1B2684643
S113151000F0B4F9FFF7C4FE0446092000F0ECF82B
S113152004F0BF03332B1B49E9D1FFF7E7FD06465F
S1131530FFF72AFE8046FFF76DFE074619240A20AE
S113154000F0DAF8013CFAD13C2404E0092000F070
S1131550D3F8013C05D0FFF75DFEFFF7F3FE00284A
S1131560F4D02DB146B1B8F1000F14BF3D460025AB
S1131570284610B0BDE8F0813546284610B0BDE8D5
S1131580F08100BF006000404CB4000030B40000A3
S113159014B4000074B400002DE9F04F06469DB069
S11315A0002000F01DFB002000F0A6F8002000F051
S11315B02BFBFF2000F052FB334D0027334C14F873
S11315C0010F00F04BFBAC42F9D11A2403E0013CBB
S11315D04AD000F091F800F069FBB52803464FF0BB
S11315E00000F4D11CAF07F85C3D3C461BAD00F095
S11315F05DFB04F8010FAC42F9D139463046FFF7E0
S1131600F7FE35783189B27A96F80BB096F80CA0CB
S113161096F80D9096F80E8033697769B46945B9E8
S11316202C462F462B46A846A946AA46AB462A4630
S11316302946002003930291019200F0D1FA30462A
S11316400299019A039B35703181B27286F80BB00E
S113165086F80CA086F80D9086F80E8033617761C9
S1131660B4611DB0BDE8F08F0137204600F044F8A6
S1131670322FA3D127462346A046A146A246A3461D
S1131680224621462546D4E78FB4000087B40000E3
S113169010B50A2384B00024154801218DF80230C6
S11316A08DF801408DF803408DF804408DF8054015
S11316B08DF806408DF807408DF808408DF80940F4
S11316C08DF80A408DF80B408DF80C408DF80040E1
S11316D000F0CEFE074B6946DC615C62DA681846AE
S11316E042F00102DA6001F087FB04B010BD00BFD4
S11316F000720400000801400C4A0D28134628BF5C
S11317000D20062110B4814000240120D161116212
S113171054625060DA68196904481142FAD001220F
S1131720022382615DF8044B436070470008014066
S113173030B585B0002404AD1548012105F8104DDD
S11317408DF801408DF802408DF803408DF8044077
S11317508DF805408DF806408DF807408DF8084057
S11317608DF809408DF80A408DF80B408DF80C4037
S113177000F07EFE074B2946DC615C62DA6818469D
S113178042F00102DA6001F037FB05B030BD00BF62
S113179000620400000401400B4A10B41346C0EB7D
S11317A0C00000240121D061106254625160DA68E3
S11317B0196905481142FAD00122022382615DF8B9
S11317C0044B4360704700BF0004014030B587B04C
S11317D06C46234D0FCD0FC495E803004FF4E1335D
S11317E0002584E803001F48012102938DF800506E
S11317F000F03EFE012003460321042201F0E6F935
S11318002846052104220123174C01F0DFF90120A9
S11318102B460246042101F0D9F9204601F022FCAE
S11318202046694601F050FB41F6FF71636D0F4A93
S113183043F4817343F001036365A164E36C4FF4E3
S113184000204FF4802143F00403E364C2F88001D4
S1131850C2F880111060116003F0CCFF07B030BDF6
S11318609CB400000022040000C8004000E100E035
S11318700148052101F020BB00C8004038B50446EA
S113188001200D4603F0E4FF78B93DB1254414F876
S1131890011B012004F02EF8AC42F8D1044A0120C7
S11318A0D36C43F00203D36438BD4FF0FF3038BD2E
S11318B000C8004010B50C4C0223A36423695B06E6
S11318C000D410BD012003F0B1FF20B1E36C23F07C
S11318D00203E36410BD012003F0D0FF014620465B
S11318E0BDE8104001F0F8BB00C8004038B50B4C0F
S11318F00423A36423691B0600D438BD002003F02D
S1131900A7FF05460028F8D1204601F0D5FB014683
S11319102846BDE8384003F0EDBF00BF00C80040D2
S113192070B5334E84B000254FF4E13331480121C2
S1131930314C02938DF8005001958DF80C508DF8C0
S11319400D508DF80E5000F093FD3046062100F046
S1131950D3FD3046012100F08BFD2046012101F02A
S113196095F92648012100F083FD042002460E214A
S1131970012301F02BF9042002460C21012301F07C
S113198025F9042002460D21012301F01FF92B46FD
S113199001220F21042001F019F9204601F0CCF9AD
S11319A02046694601F07CF9636D294643F40073CF
S11319B043F003036365204601F068F940F2FF73C6
S11319C06363A36B0E490F4A4FF0807043F0040326
S11319D04FF480564FF40055A363C1F880010860AA
S11319E0C2F8A460C2F8A45003F0BAFF04B070BDFA
S11319F003001C000043020000400840700716006A
S1131A0000E100E0006000400148052101F030B928
S1131A100040084038B5044602200D4603F0E2FFBA
S1131A20D8B93DB1254414F8011B022004F04AF84A
S1131A30AC42F8D10A4B4FF400514FF48052C3F832
S1131A40A0100120C3F8A020FFF756FE054A01208C
S1131A50936B43F00203936338BD4FF0FF3038BDFE
S1131A60006000400040084008B5002003F0A4FFD7
S1131A7008B1402008BDBDE8084003F0D3BF00BF53
S1131A8070B5264C0423022565636363A368DA06F4
S1131A901BD4224CA3689B0600D470BD01212046B0
S1131AA001F0F4F8204601F05DF91D4D0021287085
S1131AB0204601F0EBF8002003F094FF0028ECD15D
S1131AC02978BDE8704003F0FDBF284603F074FF99
S1131AD0064668B1A36B134A23F002034FF4805007
S1131AE04FF40051A363C2F8A400C2F8A410D0E7D5
S1131AF0284603F097FF0A4D01212870204601F083
S1131B00C5F82046297801F033F92046314601F022
S1131B10BDF80120FFF7F0FDBBE700BF004008401F
S1131B200C0000200060004070B586B06D46254C66
S1131B3000260FCC0FC594E80300234B012485E84D
S1131B4003002146214802938DF80E408DF80D4084
S1131B508DF8006000F08CFC3146234603200422FB
S1131B6001F034F8234603200221042201F02EF868
S1131B70032023460146042201F028F83046234678
S1131B800C21042201F022F8114D234603200721E1
S1131B90042201F01BF8334622462146032001F0BB
S1131BA015F8284601F05EFA2846694601F0FAF96C
S1131BB041F6FF726B6D43F4857323436B65AA642E
S1131BC006B070BDB4B4000040420F00001204001F
S1131BD000C400400148052101F06EB900C4004072
S1131BE040B102280AD0012803D1064B4FF4805299
S1131BF01A617047034B0822DA677047014B802251
S1131C00DA67704700600040134B58B1022812D0C5
S1131C10012819D0082080214FF48052D867D96751
S1131C201A617047082080214FF48052C3F8800065
S1131C30D9671A617047802008214FF48052C3F895
S1131C408000D9671A6170474FF4805008218022C0
S1131C505861D967DA6770470060004038B50546B7
S1131C60074C0521204601F027F92946204601F0BA
S1131C7029FA05460021204601F01EF9284638BD00
S1131C8000C4004038B50546074C0521204601F044
S1131C9013F92946204601F015FA2046BDE83840DC
S1131CA0002101F009B900BF00C4004038B5084C58
S1131CB00521204601F000F920467A2101F002FABC
S1131CC005460021204601F0F7F8284638BD00BF3C
S1131CD000C400402E4B30B4DB6CC3F307434A2BE3
S1131CE022D0792B20D02B4A482B0CBF134600233B
S1131CF098420BD80020034630BC2749274A0B6082
S1131D00536823F48073184350607047204BDB6C96
S1131D10C3F307434A2B25D0792B23D0482B18D063
S1131D204FF400700123E7E71D4C1E4A2369A169A3
S1131D30E46903F03F05C4F3031343EA052301F008
S1131D40F001144C0B43B3F5017F2CBF134623461B
S1131D50CEE7154B83422CBF4FF480704FF40070D4
S1131D600123C9E70E4C114A2369A169E46903F010
S1131D703F05C4F3031343EA052301F0F0010A4CC1
S1131D800B43B3F5017F2CBF13462346E2E700BFA4
S1131D90B081E00F0048E8017800904300800C40D7
S1131DA0D0FF0FE000366E010090D003006CDC021F
S1131DB008B500F00F03013B052B5ED8DFE803F004
S1131DC03B4F265D5D033F4B1B6813F080532AD0C5
S1131DD04BBB3D4B984257D03C4B984259D1394B61
S1131DE09B6AC3F38103022B35D0032B5BD0012BF9
S1131DF04FD0354B98425DD0344B984219D1314B7A
S1131E0014209B6A33FA00F058D108BD2D4A936A16
S1131E1003F00C03082B18D00C2B04D0042B3CD05B
S1131E20936ADB02D5D5284B98422DD0274B984294
S1131E30D5D0002008BD234BDB6A03F47053B3F5FF
S1131E40805F2AD0B3F5005FEDD11F4B98421BD0C1
S1131E501E4B9842C3D0BDE80840FEF7A9BA194A00
S1131E60936A03F00303022BEFD0032BDBD0012B87
S1131E7013D0936ADA03D6D4ABE7134B984203D05A
S1131E80124B9842ABD0B4E70E4B9B6A03F00303AA
S1131E90A9E7BDE80840FEF783BA0B4B9842F3D09C
S1131EA00A4B98429BD0FEF799F9094B1B68013302
S1131EB0D84008BD034B10209B6AA3E7BDE8084047
S1131EC0FEF772BA00800C4002001A0003001C00E6
S1131ED07800904338B5C0F30313013B0C46062B3E
S1131EE005D8DFE803F00F0404505B8C050038BD0F
S1131EF0A34B984200F0DF8003F50433984200F0CE
S1131F00C38038BDFEF7D8F941F671329D4BDD6BC5
S1131F10DA635B6803F00703042B06D8012202FA94
S1131F2003F313F0130F40F0FD80974B984240F2F7
S1131F30A380052293494B6823F0070313434B60A6
S1131F400DB10023CB63914A013C136823F4E033C1
S1131F5043EA84341460FEF741F941F67132894B47
S1131F60DC6BDA635B6803F00703042B64D801229B
S1131F7002FA03F313F0130F5ED0834B984240F23E
S1131F80C48004225CE0B1FA81F4804AC4F11F04E5
S1131F90936823F00F031C43946038BDFEF78CF95B
S1131FA041F67132774BDD6BDA635B6803F007034C
S1131FB0042B06D8012202FA03F313F0130F40F0A6
S1131FC0AC80714B98424FD905226E494B6823F07F
S1131FD0070313434B600DB10023CB63FEF770F985
S1131FE0B0FBF4F0B4FA84F4FFF774FE674AC4F16A
S1131FF01F04536823F00F031C435460ABE7644B86
S1132000984200F0CF806CD9624B984200F0A080D7
S1132010614B984240F09B805C4A536DD90740F174
S11320208D80B4FA84F4594AC4F11F04936E23F0EA
S113203003032343936638BD534B98420CD90522BE
S113204050494B6823F0070313434B60002C3FF4C3
S11320504EAF0023CB6338BD504B514A03449342E7
S11320608CBF02220322EBE74C4B4D4A03449342BC
S11320708CBF02220322A8E7484B494A03449342F7
S11320808CBF0222032255E7404A536DD9070BD572
S1132090B4FA84F43D4AC4F11F04136F23F03003EF
S11320A043EA0413136738BD136D5B06F0D5136D53
S11320B05B06F9D4ECE7354A536DDD070AD5B4FA6B
S11320C084F4324AC4F11F04136F23F0030323433F
S11320D0136738BD136D5806F1D5136D5806F9D43E
S11320E0EDE7A3F58223984230D1284A536DDD07EA
S11320F01DD5B4FA84F4254AC4F11F04936E23F069
S1132100F00343EA0413936638BD244B244A034482
S113211093428CBF0022012292E71B4B984260D964
S1132120042252E7184B984253D9042202E7136D54
S11321305807DED5136D5807F9D4DAE7136D5B073A
S11321407FF56FAF136D5B07F8D46AE738BD38BD10
S11321500E4A536DDD070BD5B4FA84F40B4AC4F16F
S11321601B04936E23F4405343EA0433936638BD4F
S1132170136D5807F0D5136D5807F9D4ECE700BF79
S11321807007160000000C400048E80100800C4075
S1132190602614006000260060062A00FFDB0BFFA7
S11321A0FF23F400134A536DD9070BD5B4FA84F412
S11321B0104AC4F11F04936E23F4706343EA0423AA
S11321C0936638BD136D5B07F0D5136D5B07F9D4C7
S11321D0ECE7094B094A034493428CBF00220122D5
S11321E0A8E6054B054A034493428CBF0022012212
S11321F0EBE600BF00800C40FFDB0BFFFF23F40085
S113220000F00F000138052843D8DFE800F0301F44
S11322100E424203234B1B6813F080533BD0B3F1AF
S1132220805F0CBF0920012070471E4A936A03F0A7
S11322300C03082B31D00C2B31D0042B27D0936AFC
S113224013F4801F0CBF01200A207047154B986AB5
S113225000F0030002281BD0032820D0012816D048
S11322609B6A13F4803F0CBF01200A2070470D4B7A
S1132270DB6A03F47053B3F5805F08D0B3F5005FF5
S11322800BD0B3F5006F0CBF04200520704703206A
S113229070470020704707207047022070470620CF
S11322A0704700BF00800C4000F47810B0F5A01F08
S11322B008B500F09B800FD9B0F5E01F69D024D891
S11322C0B0F5C01F4DD0B0F5D01F00F08A80B0F536
S11322D0B01F63D0002008BDB0F5802F70D066D940
S11322E0B0F5602F24D0B0F5801F00F08880B0F5E1
S11322F0402FEFD15148FFF783FF072818D0092852
S1132300E8D1BDE80840FDF7DBBFB0F5201F31D0B0
S1132310B0F5281F5CD0B0F5181FDBD14848FFF793
S113232047FD484B9B6EC3F301330433D84008BDCB
S1132330444B5B6903F4E063B3F5007F6FD067D966
S1132340B3F5C06F77D0B3F5E06F72D0B3F5407FCB
S1132350C0D13D4BDB6CB3F1985F2CBF3B483C488C
S113236008BD3C48FFF724FD364B1B6FC3F3011334
S1132370D84008BD3248FFF71BFD324B9A6EDB6F25
S1132380C2F3013203F00703D0400133B0FBF3F092
S113239008BD3048BDE80840FFF70ABD2D48FFF7E7
S11323A007FD284B1B6F03F00303D84008BD00282A
S11323B0A7D0B0F5003F8DD1BDE80840FDF70EBFB2
S11323C0FDF77EFF1F4B9B6803F00F03D84008BD49
S11323D01B48FFF7EDFC1B4B9B6E03F00303D84037
S11323E008BD1748BDE80840FFF7E2BC1448FFF7F2
S11323F0DFFC144B9B6EC3F30323D84008BD104885
S1132400FFF7D6FC0F4B9B6EC3F30313D84008BDF4
S11324106BB1B3F5807F7FF45DAF0F4808BD0A4B05
S1132420DB6CB3F1985F2CBF0C480D4808BD0D4818
S113243008BD0D4808BD0D4808BD00BF06000C00CE
S113244002001A0000800C40B081E00F804F12009F
S113245040420F0003001C00C0D8A70040B5640030
S1132460C0CF6A00809FD500406F4001003FAB01A0
S113247030B5C0F30323013B83B00446092B0CD8C9
S1132480DFE803F0191E200B0B0D1B0B0B05124884
S1132490C4F304340444A400216003B030BD0F48E5
S11324A001250F4AC4F30434536DDB07F2D4136DD2
S11324B01D42FCD1EEE70B48EAE70B481025F0E794
S11324C00A48E5E70A480191FFF7EEFEFFF702FC30
S11324D008480199DCE700BFC003E410C002E4101F
S11324E000800C404000E4100003E4102002E410DB
S11324F0004302000002E41038B500F00F04631E2C
S1132500052B04D8DFE803F0240A0A03030438BDCA
S1132510072924D0092900F0BD8038BD01390929D3
S1132520F5D801A353F821F0C1260000F3260000DA
S1132530DD2600000F2500000F2500000B270000FA
S11325400F2500000F2500000F25000021270000A3
S113255002390329DBD8DFE801F05E08284A944AEF
S1132560136823F08053136038BD924A0324402338
S11325708F490B621368002BFCD0FDF79DFE41F6DA
S113258071328D4BDD6BDA635B6803F00703042B58
S113259046D8012202FA03F313F0130F40D0874BFD
S11325A0984240F2C38004223EE0854BDB6CC3F3C7
S11325B007434A2B00F0CA80792B00F0C780482BD0
S11325C0804818BF0120FFF785FBFDF7E1FE784A3C
S11325D07A4B02249842136896BF23F0600343F0B9
S11325E0600343F020031360774A0423C0E7744B6D
S11325F0DB6CC3F307434A2B00F0BC80792B00F05B
S1132600B980482B6F4818BF01200124FFF762FBF3
S113261023466E4AACE76E4A04244FF48073A7E75E
S1132620664B98423CD9052263494B6823F0070363
S113263013434B600DB10023CB635D4B5C62FDF72C
S1132640CDFDFFF747FBFDF7C9FD41F671325A4B4B
S1132650DC6BDA635B6803F00703042B0AD80122FE
S113266002FA03F313F0130F04D0544B984265D9C4
S1132670042203E0514B98421AD905224E494B6873
S113268023F0070313434B60002C3FF440AF0023B7
S1132690CB6338BD464A136843F08053136038BD9A
S11326A04C4B4D4A034493428CBF02220322BBE7A6
S11326B0484B494A034493428CBF02220322DDE77C
S11326C0002003460146022C68D039498A6A22F464
S11326D0801323F00C0303438B6238BD344B402139
S11326E0344A19621368002BFCD004200023012112
S11326F0E9E72F4B4FF48071354A19621368002BB8
S1132700FCD0082000230221DDE7FDF767FDFFF779
S1132710E1FA324B01221A600C2000230321D2E794
S11327204FF480104FF480330021CCE7294B2A4A20
S1132730034493428CBF0022012275E7254B264AAD
S1132740034493428CBF0022012297E72449254B7E
S113275008698A69C96900F03F00C1F3031141EABD
S1132760002102F0F00217480A43B2F5017F28BFA6
S1132770184628E71A491B4B08698A69C96900F099
S11327803F00C1F3031141EA002102F0F0020D48B9
S11327900A43B2F5017F28BF184636E704481943B7
S11327A0826A22F4803323F003030B43836238BD2F
S11327B000800C409C05904300000C400048E80158
S11327C0B081E00F0148E8018C05904384059043F3
S11327D0A4059043FFDB0BFFFF23F4001008904394
S11327E0D0FF0FE001366E0170B5052804D8DFE88C
S11327F000F02D31363B3F0470BD824B1B6BC3F39D
S11328000725814B0446DA6A02F47052B2F5805F00
S113281071D0B2F5005F6ED0B2F5006F6BD0FDF7EA
S11328204BFD41F67132794BDE6BDA635A6802F084
S11328300702042A20D80123934013F0130F1BD05E
S1132840734B984240F2D580042220E06D4BDB6A42
S1132850DDB2D6E76B4BDB6AC3F30725D1E7694BDF
S1132860DB6AC3F30745CCE7664BDB6A1D0EC8E79A
S1132870644B1B6BDDB2C4E7654B984200F2A28047
S1132880644B654A034493428CBF022203225F498E
S11328904B6823F0070313434B600EB10023CB6353
S11328A0594AD06820F4FF6020F0070040EA04236E
S11328B02B43D360FDF792FC41F67132534BDC6B32
S11328C0DA635B6803F00703042B7DD8012202FA64
S11328D003F313F0130F77D04D4B984240F28180ED
S11328E004224A494B6823F0070313434B6064B145
S11328F00023CB6309E04449CA6822F4FF6323F050
S1132900070343EA04232B43CB60FDF767FC3D4BED
S1132910DB6CC3F307434A2B21D0792B1FD03C4AED
S1132920482B0CBF1346002398420AD800200346C4
S11329303A49354A0B60536823F480731843506056
S113294070BD304BDB6CC3F307434A2B25D0792B86
S113295023D0482B18D04FF400700123E8E7304C03
S1132960304A2369A169E46903F03F05C4F3031302
S113297043EA052301F0F001254C0B43B3F5017F35
S11329802CBF13462346CFE7274B83422CBF4FF47B
S113299080704FF400700123CAE7214C234A236955
S11329A0A169E46903F03F05C4F3031343EA052373
S11329B001F0F0011C4C0B43B3F5017F2CBF13460F
S11329C02346E2E7052262E7114B984201D905222A
S11329D087E7104B104A034493428CBF0222032220
S11329E07FE70C4B0C4A034493428CBF0022012224
S11329F077E7084B084A034493428CBF0022012224
S1132A0045E700BFB081E00F00800C4000000C409F
S1132A100048E801FFDB0BFFFF23F400780090433C
S1132A20D0FF0FE000366E010090D003006CDC0292
S1132A3010B4042806D8DFE800F0231B17081F0091
S1132A40124A13625DF8044B7047114802230124B3
S1132A500029F5D00D4B1C62002AF3D00368002B2B
S1132A60FCD05DF8044B70470A4808230424EFE7C0
S1132A70094880234024EBE7084820231024E7E793
S1132A8007484FF400734FF48074E1E700800C4072
S1132A90840590438C0590439C0590439405904392
S1132AA0A4059043EFF3108072B6704700B962B684
S1132AB0704700BF41F20C022DE9F0471B4B1C4E3E
S1132AC01B68B158B26B0B401A4F03EA020423EAA5
S1132AD002084FF00209FCB100254FF0010AE30798
S1132AE00AFA05F214D5B3683A6003EB0513DB6800
S1132AF073B1197AD3F800C081F001021A72BCF1E3
S1132B00000F05D0003118BF01215A682846E0475C
S1132B10640805F10105E2D1B9F1010F03D044467F
S1132B204FF00109D7E7BDE8F08700BF00300C4043
S1132B3000200C4008300C4000EBC000800000F185
S1132B40804000F5C040036823F00303194301608B
S1132B50704700BFF0B5072A9DF814509DF818403F
S1132B601DD9DFF864E0A2F108018900DEF80060F5
S1132B7007278F40884026EA07010843CEF8000063
S1132B800E49012011440E4E890000FA02F20B6036
S1132B90C1F88050C6F81C21C1F80041F0BD094FAE
S1132BA04FEA820E3E68072101FA0EF100FA0EF098
S1132BB026EA010108433860E2E700BF40088310B9
S1132BC0006000400061004004610040F0B5C400B2
S1132BD052B1002B38D02518AD0005F180450126EF
S1132BE005F5C0458E402E612518AD00072905F175
S1132BF0804517D805F5C0456F684FEA810E0F264A
S1132C0006FA0EF627EA060702FA0EF63E436E604F
S1132C103AB9204403BB154B8000012203448A4087
S1132C205A60F0BD01F1804605F5C045083EAF6825
S1132C30B6004FF00F0E0EFA06FE27EA0E0702FA50
S1132C4006F63E43AE60E3E72718084DBF000126B1
S1132C503D448E406E60C7E7800000F18040012350
S1132C6000F5C0408B400361F0BD00BF1060004020
S1132C70CB43026C03F00503D20741EA430102D4BB
S1132C80436C9B07FCD44160704700BF09B90164E1
S1132C907047436C002BFCD101230364704700BFD1
S1132CA030B5036C83B0DB07044602D4636C9D0724
S1132CB0FCD40A236360636C002BFCD101232364DE
S1132CC022680B7B487B22F01C0213438A7B03435C
S1132CD04868134323608D6858B9144B9C4222D032
S1132CE003F580639C4211D111480191FFF7DCFA8E
S1132CF001994001B0FBF5F347F6F872206C203BD4
S1132D00DB00C00702EA030206D5E2600A7800236A
S1132D106260236403B030BD636C5B07F5D5636CFC
S1132D205B07F9D4F1E70348DFE700BF0040084040
S1132D307017180070071600436C002BFCD140F28A
S1132D40F97210B4EA210124046441605DF8044B73
S1132D500360C3600361436183634263C363436588
S1132D600364704783689B06FCD5C069C0B2704792
S1132D708368DB06FCD5036CDA0702D4436C5B067C
S1132D80FCD48162704700BF20B1012801D1024BFD
S1132D9019607047014BFBE70C000840080008402D
S1132DA04FF0864318607047427803780AB143F0C5
S1132DB0020382780AB143F00403014A13607047A6
S1132DC0000008400B4A5169136901F00F01C3F375
S1132DD0811343EA81038370136903F03F03437053
S1132DE09169D36901F0F002C3F303131343037031
S1132DF0704700BFD0FF0FE02DE9F04791F8009035
S1132E00B9F1000F01D1022343604B784C7A8A7ADE
S1132E10002B18BF4FF0400ACB7A08BF4FF0000ACE
S1132E20002C18BF4FF080080C7908BF4FF0000841
S1132E30002A18BF4FF0200C4A7908BF4FF0000C4D
S1132E40002B18BF4FF0100E0B7B08BF4FF0000E85
S1132E50002C14BF4FF400570027002ACA7814BF6F
S1132E604FF080560026002B8B780C7A4FEA0242F2
S1132E7042EA03628B7942EA0402C97942EA832274
S1132E8042EA012343EA0A0343EA080848EA0C0C2D
S1132E904CEA0E0E4EEA070714BF082500253E43F0
S1132EA03543002343620560B9F1000F01D00123CB
S1132EB04360BDE8F08700BFCB4303F005035B002C
S1132EC0C360C160704700BFF8B5044640F6AA6706
S1132ED041F2050641F6F9702D4A00239442E76059
S1132EE00D4623606660A3606361E364A064636568
S1132EF04AD0284AA365944243D0274B9C4240D0F1
S1132F00AB7C1BB1236843F080432360EB7C1BB193
S1132F102B7D43F01003A365298A6B7BEA890B435D
S1132F20686813436360AE682F7B18B3202F26D0E4
S1132F301CD9402F18D0602F13D1042306FB03F3B0
S1132F40800000EB5300B0FBF3F32268043B22F053
S1132F50600222602168114A9B011A400F432760D6
S1132F6062612B78E360F8BD0623E7E7002FF8D110
S1132F701023E3E70A48FFF797F9202FD8D1082355
S1132F80DCE70023E365BBE72365A365B8E700BF7F
S1132F9000C0004000C4004000C80040C0FF1F0043
S1132FA040810400F8B5044640F6AA6741F20506DC
S1132FB041F6F970274A00239442E7600D462360E6
S1132FC06660A3606361E364A06463653FD0224AE2
S1132FD0A365944238D0214B9C4235D0AA7B2B7DEB
S1132FE0002A14BF4FF480610021002B2B8A226831
S1132FF043F001039BB242EA030242EA0102226067
S1133000236814BF4FF000500020AA7C03432360C0
S11330101AB1EB7C43F01003A3652B7B686843F47F
S113302080536360AE6810B90D48FFF73DF901386D
S11330307600B0FBF6F06B7B000260610BB11023ED
S1133040E3602B78E360F8BD0023E365C6E72365FE
S1133050A365C3E700C0004000C4004000C80040AE
S11330604081040030B441F6F97140F6AA6541F29A
S113307005040E4A00239042C560036044608360E7
S11330804361C364816443650CD0094A83659042FB
S113309004D0084B984201D030BC70470023C3656C
S11330A030BC7047036530BC8365704700C0004086
S11330B000C4004000C8004003691B06FCD5C06979
S11330C0C0B2704703695A06FCD5416303699B0685
S11330D0FCD5C069C0B2704703695B06FCD5416387
S11330E0704700BF20B9034B187880F00100704787
S11330F001207047B002002008B10120704708B5D4
S1133100FDF716FA0346024A80F00100137008BD69
S1133110B002002020B102288CBF04200120704797
S113312008B510461A46FDF72BFB80F00100C0B22B
S113313008BD00BF20B102288CBF042001207047C5
S113314008B510461A46FDF793FB80F00100C0B2A3
S113315008BD00BF012806D003D3022801D00420F3
S113316070470120704700290CBF002004207047DD
S1133170F8B5C46A00F1300705462246394640785E
S11331800123FFF7D7FFB0B92A6AAB69A21A9A42A2
S1133190E8700ED2AE78012E01D80AE0AB691C4467
S11331A0013E2246687839460123FFF7C3FF012E0A
S11331B0F4D10020F8BD0120F8BD00BF70B54FF078
S11331C0FF360023B14204460D46C370C66208D0E0
S11331D0407804F130012A460123FFF79BFF60B9D0
S11331E0E5624AF6552294F82F1294F82E3243EAF7
S11331F00123934204D0032070BDE662042070BD15
S113320094F83030E92B07D0236B184A03F0FF13EE
S1133210934201D0022070BD94F8692094F868307C
S113322094F8671043EA022394F8662041EA0323E2
S113323042EA03230E4A23F07F43934213D094F8C7
S1133240843094F8851094F8832043EA012194F89B
S1133250823042EA0122074843EA0223834214BF30
S11332600220002070BD002070BD00BFEB00900064
S113327046415400464154332DE9F041C56A0446A1
S11332808D420E4632D0C37800F1300873B932460D
S1133290414660780123FFF73DFF00281ABF4FF035
S11332A0FF3601200020E662BDE8F0814146407807
S11332B02A460123FFF73EFFA8B9226AA369AA1A86
S11332C09A42E070E3D2A778012F01D8DFE7A3691F
S11332D01D44013F2A46607841460123FFF72AFF37
S11332E0012FF4D1D3E70120BDE8F0810020BDE82F
S11332F0F08100BF2DE9F84FC378044663B9237801
S1133300032B2CD0002160780A46FFF723FF0030FE
S113331018BF0120BDE8F88FC56A00F130072A46BE
S1133320394640780123FFF705FFA8B9226AA3694B
S1133330AA1A9A42E070E2D2A678012E01D8DEE7FA
S1133340A3691D44013E2A46607839460123FFF7EC
S1133350F1FE012EF4D1D2E70120BDE8F88F2579E2
S1133360012DCFD104F13007384600214FF400720B
S113337007F0C1FAE06826694FEA104C4FEA106E74
S11333804FEA102884F81C024FF0550084F82E02EE
S11333906FF05500E3694FEA16695A1C4FEA162B81
S11333A02B464FEA164A394684F81862522561269C
S11333B0412784F81B924FF0720984F82F0284F895
S11333C019B284F81AA284F81D8284F81EC284F803
S11333D01FE2E26284F8305084F8315084F832609D
S11333E084F8176284F8337084F8167284F814929F
S11333F084F815926078FFF79DFE0023237181E71E
S1133400F0B500230B60056885B035B32E78202E07
S113341009D93A2E21D02C4601E03A2B1AD014F8BF
S1133420013F202BF9D8C34B1D68CDB10D602B781B
S113343002F0FE0423B16878FFF754FEC70712D5E3
S1133440002028706870FFF757FEC60714D50320C4
S113345005B0F0BD6B1C9C4220D00B2005B0F0BD24
S11334600C2005B0F0BD5CB300F0040303F0FF00D2
S1133470002BEDD00A20EBE70CB14107FAD400226F
S11334804FF0FF34EA70EC62687805F130010123F3
S1133490FFF740FE38B1EC620120D9E7302EDCD1D1
S11334A002350560BFE74AF6552295F82F1295F8C4
S11334B02E32E86243EA0123934203D00D20C7E78A
S11334C02046C5E795F83030E92B65D02B6B9A4A36
S11334D003F0FF1393425FD095F8F2216AB195F897
S11334E0F83195F8F91195F8F72143EA012195F897
S11334F0F63142EA012243EA022295F802320092AE
S11335006BB195F8083295F8091295F8072243EA49
S1133510012195F8063242EA012243EA022395F892
S1133520122201936AB195F8183295F8191295F898
S1133530172243EA012195F8163242EA012243EAAE
S1133540022295F8223202926BB195F8283295F84E
S1133550291295F8272243EA012195F8263242EAF6
S1133560012243EA0223009C0393002C40F0EC80E8
S1133570019C002C40F0D680029C002C40F0CA80B4
S1133580039C002C9AD028462146FFF717FE0128F9
S113359028D9042892D17FE795F8683095F8691006
S11335A095F8672043EA012195F8663042EA012242
S11335B043EA0223614A23F07F43934211D095F8F2
S11335C0843095F8851095F8832043EA012195F815
S11335D0823042EA01225A4943EA02238B427FF4B1
S11335E07BAF002495F83C2095F83B3043EA022356
S11335F0B3F5007F7FF462AF95F8471095F8463035
S113360053EA01210DD195F8571095F8562095F8F5
S1133610553042EA012295F8541043EA022341EA64
S1133620032195F84000A961431E012BA8703FF6C1
S113363045AF95F83D3000FB01F09AB26A81002A4B
S11336403FF43CAF5A1E1A427FF438AF95F841203C
S113365095F8426042EA062632072E817FF42EAFA7
S113366095F8447095F8432052EA07220DD195F855
S1133670522095F853E095F8517042EA0E2E95F8D1
S1133680502047EA0E2742EA072295F83FE095F8D2
S11336903E7057EA0E2E3FF411AF0EEB1617074497
S11336A0BA42FFF40BAFD21BB2FBF3F3002B3FF48F
S11336B005AF4FF6F57293426AD840F6F57293421D
S11336C04AD8023304EB0E0227446B612A62AF62CC
S11336D0EC61002E3FF4F2AE03F0010404F2FF1497
S11336E003EB430304EB53030244B1EB532F6A622D
S11336F0FFF4E4AE4FF0FF3380222B61EB602A71BC
S11337000123104A2B701388002001339BB21380CD
S1133710EB809DE628462146FFF750FD01283FF641
S11337202FAF5FE728462146FFF748FD01283FF603
S113373023AF57E7B4020020EB0090004641540049
S113374046415433B202002028462146FFF736FD95
S113375001283FF60DAF45E7023304EB0E02274480
S11337606B612A62AF62EC61002E3FF4A7AE5B008E
S113377003F2FF130244B1EB532F6A62FFF49EAECF
S11337804FF0FF3380222B61EB602A710223B8E7EC
S113379095F85BC095F85A0004EB0E0202332744F7
S11337A02A6250EA0C226B61AF62EC617FF486AE50
S11337B0002E7FF483AE95F85E2095F85F7095F83F
S11337C05D0042EA07279B0095F85C2040EA072049
S11337D003F2FF1342EA0022B1EB532F6A62FFF4B3
S11337E06DAE95F8611095F860304FF0FF3243EA02
S11337F00123012B4FF080012A61EA60297101D075
S113380003237EE7611C2846FFF736FD0028F7D125
S11338104AF6552295F82F1295F82E322E7143EA66
S113382001239342ECD195F8323095F8331095F892
S1133830312043EA012195F8303042EA01221A4945
S113384043EA02238B42DBD195F8163295F817121E
S113385095F8152243EA012195F8143242EA01222F
S1133860124943EA02238B42CAD195F81A2295F8E9
S11338701E3295F81B6295F81F4295F8190295F8C7
S11338801D1242EA062643EA042495F8182295F804
S11338901C3240EA062041EA042142EA002243EABB
S11338A001232A61EB60ABE75252614172724161BC
S11338B02DE9F84F03780446022B0D46164600F016
S11338C0AA80032B73D0012B02D00220BDE8F88F0D
S11338D0076A01EB5108D0F82CB007EB5829D945F9
S11338E000F04581C27800F13007002A40F0FD80E5
S11338F0394660784A460123FFF70CFC002840F063
S11339001681CB46276AC4F82C9008F1010A15F0F9
S11339100105C8F30808A04400F00F8198F830208E
S1133920F3B202F00F0207EB5A2742EA03134F45A2
S11339304FF0010288F83030E27000F01A8104F18F
S11339403008414660784A460123FFF7F3FB00281C
S113395040F0F080226AA369C2EB09029A42E07047
S113396012D294F80290B9F1010F01D80CE0A369C6
S11339709B4409F1FF395A46607841460123FFF719
S1133980D9FBB9F1010FF2D1414660783A460123DF
S1133990FFF7C0FB002840F0CA80E762CAF3080AB8
S11339A0002D00F0D580C6F30716A244D8E0036AC0
S11339B0D0F82CA003EBD118D0450FD0C37800F178
S11339C03007002B6ED13946607842460123FFF759
S11339D0A1FB002840F0AB80C4F82C80AD0005F4B6
S11339E0FE7505F130032344DA7826F0704612069A
S11339F002F07042164325444FEA162E370C310E5E
S1133A00012285F8306083F801E09F70D970E2707C
S1133A100020BDE8F88F036AD0F82CA003EB11282E
S1133A20D0450DD0C37800F13007C3B9394660786A
S1133A3042460123FFF76EFB002878D1C4F82C809E
S1133A406D0005F4FF756119C6F30722012381F89F
S1133A50306081F83120E3700020BDE8F88F3946EA
S1133A60407852460123FFF765FB002862D1226AA1
S1133A70A369C2EB0A029A42E070D7D294F802908A
S1133A80B9F1010F01D8D1E7A3699A4409F1FF39CB
S1133A905246607839460123FFF74CFBB9F1010F18
S1133AA0F2D1C3E73946407852460123FFF742FB7F
S1133AB000283FD1226AA369C2EB0A029A42E0704D
S1133AC081D294F80290B9F1010F01D87BE7A36980
S1133AD09A4409F1FF395246607839460123FFF7C9
S1133AE029FBB9F1010FF2D16DE7394640785A4606
S1133AF0FFF720FBF0B9226AA369C2EB0B029A42DA
S1133B00E070BFF4F5AE94F802A0BAF1010F01D849
S1133B10EEE6A3699B440AF1FF3A5A4660783946B7
S1133B200123FFF707FBBAF1010FF2D1E0E64FF0F2
S1133B30FF33E3620120BDE8F88F07EB5A27012326
S1133B404F4588F83060E3707FF4F9AECAF3080A91
S1133B50A2449AF83030C6F3032623F00F031E4321
S1133B6001238AF83060E3700020BDE8F88FCB466B
S1133B70CBE6CAF3080A16E701296CD92DE9F84FF8
S1133B804369994208D203780446022B0D464AD071
S1133B90032B62D0012B02D00120BDE8F88F026A0A
S1133BA001EB5109D0F82C8002EB592AC24500F0F0
S1133BB0F580C27800F13006002A40F0D08031460A
S1133BC0607852460123FFF7A5FA00283ED15746F4
S1133BD0226AC4F82CA0C9F3080309F1010902EB15
S1133BE0592B2344D34593F830800ED0E37804F165
S1133BF03006002B40F0D480314660785A460123C9
S1133C00FFF788FA10BBC4F82CB0C9F308094C4478
S1133C1094F83000EB0748EA00204CBF0009C0F3D9
S1133C200B00BDE8F88F076AD0F82C9007EB11273A
S1133C304F453ED0C37800F13006002B46D13146C3
S1133C4060783A460123FFF765FA88B34FF0FF30F6
S1133C50E062BDE8F88F01207047076AD0F82C9025
S1133C6007EBD1174F450DD0C37800F13006002B78
S1133C7052D1314660783A460123FFF74BFA0028C7
S1133C80E4D1E762A90001F4FE7101F13003234499
S1133C90DD7898785A780C4494F8303040EA05205E
S1133CA042EA002043EA002020F07040BDE8F88F8B
S1133CB0E762690001F4FF7163181C4693F8303021
S1133CC094F8310043EA0020BDE8F88F314640788B
S1133CD04A460123FFF72EFAD0B9226AA369C2EB40
S1133CE009029A42E070AAD294F80280B8F1010F56
S1133CF001D8A4E7A369994408F1FF384A466078DB
S1133D0031460123FFF716FAB8F1010FF2D196E715
S1133D104FF0FF30BDE8F88F314640784A46012322
S1133D20FFF708FA0028F3D1226AA369C2EB09025B
S1133D309A42E0709DD294F80280B8F1010F01D844
S1133D4097E7A369994408F1FF384A4660783146F9
S1133D500123FFF7EFF9B8F1010FF2D189E73146FA
S1133D6040784246FFF7E6F90028D1D1226AA369D8
S1133D70C2EB08029A42E070BFF421AFA778012F8A
S1133D8001D81CE7A3699844013F42466078314654
S1133D900123FFF7CFF9012FF4D110E757461AE7B3
S1133DA03146607852460123FFF7C4F90028AFD1A9
S1133DB0226AA369C2EB0A029A42E070BFF41CAF04
S1133DC094F802A0BAF1010F01D815E7A3691F44C2
S1133DD00AF1FF3A3A46607831460123FFF7AAF91F
S1133DE0BAF1010FF2D107E72DE9F04F85B0834610
S1133DF001910768002940F0FA80FE687B69CEB91A
S1133E000126344601349C4218D3012E40F2EB8043
S1133E10DBF8005002246B69A34207D92B78022BEC
S1133E2000F0BB80032B5ED0012B0CD0012005B029
S1133E30BDE8F08F9E4228BF0126E2E7012CDBF8A3
S1133E400050F3D9E7E72A6A04EB5401D5F82C8033
S1133E5002EB512AD045009112D0EA7805F1300CDA
S1133E60002A40F0D2806146687852460123FFF769
S1133E7051F9002840F0B1802A6A0099C5F82CA0B5
S1133E80C1F308032B44013102EB512893F830307D
S1133E90C2450091029310D0EB7805F1300C002B51
S1133EA040F040816146687842460123FFF732F9C9
S1133EB0002840F09280C5F82C80009BC3F3080AC8
S1133EC05544029B95F8300043EA0020E3074CBFB9
S1133ED00009C0F30B0098B30128A8D0B44200F045
S1133EE082807B698EE72B6AD5F82C9003EBD4187B
S1133EF0C8450FD0EB7805F1300C002B40F09380CF
S1133F006146687842460123FFF704F9002864D12A
S1133F10C5F82C80A30003F4FE7303F130022A4495
S1133F20D07891781D44527895F8303041EA0020D9
S1133F3042EA002043EA002020F070400028CBD160
S1133F407B69A3427FF672AF384621464FF0FF32B9
S1133F50FFF7AEFC002840F0E180019B7BB1012B10
S1133F601A467FF663AF7B699A42BFF45FAF11468E
S1133F7038462246FFF79CFC002840F0CF807A693F
S1133F803B69023A9342FC6001D8013B3B613B79B7
S1133F90204643F001033B7149E72B6AD5F82C9086
S1133FA003EB1428C8450DD0EB7805F1300C002B39
S1133FB066D16146687842460123FFF7ABF860B9E1
S1133FC0C5F82C80630003F4FF73EA1892F83030CC
S1133FD092F8310043EA00207DE74FF0FF30E862B9
S1133FE005B0BDE8F08F002005B0BDE8F08F38467D
S1133FF0FFF7C2FD01287FF619AF421C0ED07B6982
S11340009842FFF414AF019EFBE66146687842468D
S1134010CDF808C0FFF78EF800285CD04FF0FF30D1
S113402005B0BDE8F08F614668784A460123CDF8B3
S113403000C0FFF77FF80028F0D12A6AAB69C2EB11
S113404009029A42E870DDF800C0BFF459AF95F850
S113405002A0BAF1010F7FF653AF0094644600E06A
S1134060AB6999440AF1FF3A4A466878214601232C
S1134070FFF760F8BAF1010FF2D1A446009C3FE7C4
S1134080614668784A460123CDF800C0FFF752F82C
S11340900028C3D12A6AAB69C2EB09029A42E870CC
S11340A0DDF800C085D295F802A0BAF1010F80D9DD
S11340B00094644600E0AB6999440AF1FF3A4A4629
S11340C0687821460123FFF735F8BAF1010FF2D1E0
S11340D0A446009C6DE72A6AAB69C2EB08029A42C7
S11340E0E870DDF808C0BFF4BEAE95F80290B9F1EF
S11340F0010F7FF6B8AE0294644600E0AB699844C1
S113410009F1FF394246687821460123FFF712F886
S1134110B9F1010FF2D1A446029CA4E601287FF470
S113412085AE7BE76146687852460123CDF80CC022
S1134130FFF700F800287FF471AF2A6AAB69C2EB7D
S11341400A029A42E870DDF80CC0BFF4ABAE95F8F1
S11341500290B9F1010F7FF6A5AE0394644600E026
S1134160AB699A4409F1FF39524668782146012324
S1134170FEF7E0FFB9F1010FF2D1A446039C91E6EA
S11341802DE9F04F8668002383B00361D0F80080E6
S11341908EB998F80030022B08D8B8F80830002BF4
S11341A040F0B880022003B0BDE8F08FD8F8243086
S11341B0002BF2D01E46B8F80A30002B40F02481C0
S11341C007464446012EEDD96369B342EAD9237800
S11341D0022B46D0032B6ED0012BE3D1226A06EBCF
S11341E0560AD4F82CB002EB5A25AB450FD0E2782E
S11341F004F13009002A40F0E080494660782A46FC
S11342000123FEF787FF00287DD1226AE562CAF305
S1134210080323440AF1010A02EB5A2993F83030C7
S11342204D4500930FD0E37804F1300C002B40F09F
S1134230F880614660784A460123FEF76BFF002848
S113424061D1C4F82C90CAF3080A5444009A94F833
S1134250303042EA0323F2074CBF1E09C3F30B06B6
S11342601FE0256AD4F82CB005EB16255D450DD06A
S1134270E37804F1300A002B7BD1514660782A465A
S11342800123FEF747FF00283DD1E562760006F4DE
S1134290FF76A3191C4693F8303094F8316043EA52
S11342A00626012E7FF67EAFD8F81430B3427FF68F
S11342B079AF3C6886E7256AD4F82CB005EBD615AF
S11342C05D450BD0E37804F1300A7BBB514660783E
S11342D02A460123FEF71EFFA8B9E562B60006F4DC
S11342E0FE7606F130032344D878997834445A781A
S11342F041EA002694F8303042EA062643EA0626CC
S113430026F07046CDE74FF0FF33E362012003B09F
S1134310BDE8F08FD8F8243083614661002B3FF468
S113432041AF08F13003C36100203CE75146607897
S11343305A460123FEF7FEFE0028E7D1226AA3694C
S1134340C2EB0B029A42E070C0D294F80290B9F129
S1134350010F01D8BAE7A3699B4409F1FF395A4612
S1134360607851460123FEF7E5FEB9F1010FF2D161
S1134370ACE7514660785A460123FEF7DBFE00287D
S1134380C4D1226AA369C2EB0B029A42E070BFF463
S113439074AF94F80290B9F1010F01D86DE7A369E5
S11343A09B4409F1FF395A46607851460123FEF7D0
S11343B0C1FEB9F1010FF2D15FE7494660785A4670
S11343C0FEF7B8FE0028A1D1226AA369C2EB0B0252
S11343D09A42E070BFF411AF94F802C0BCF1010F2F
S11343E07FF60BAF00952546644600E0AB699B441D
S11343F0013C5A46687849460123FEF79BFE012C8E
S1134400F4D12C46009DF8E6D8F81410B21E0239F7
S11344108A4236BFD8F82810002303FB02138361B5
S11344207BE7614660782A460123CDF804C0FEF795
S113443081FE00287FF46AAF226AA369AA1A9A420D
S1134440E070DDF804C0BFF4F4AE94F802B0BBF140
S1134450010F7FF6EEAE01962646644600E0B3698E
S11344601D440BF1FF3B2A46707821460123FEF7D9
S113447061FEBBF1010FF2D1A4463446019ED8E699
S113448003682DE9F04F1A46044685B0894611F8B1
S1134490013B2F2BFAD05C2BF8D00023A36099F8B2
S11344A000301F2B40F27F81924604F120030093D9
S11344B02023002584F8203084F8213084F8223029
S11344C084F8233084F8243084F8253084F82630A6
S11344D084F8273084F8283084F8293084F82A3086
S11344E02B4619F803000826202803F101022AD9D3
S11344F02F284DD05C284BD02E282CD0B54224D266
S113450000F17F01C9B21E292BD900F12001C9B2E3
S11345101C2926D9222818D0AE4B01E0884214D099
S113452013F8011F0029F9D1A0F16103192B01D857
S11345302038C0B2009B58551346013519F80300C2
S11345405A1C2028D4D8914465BB4FF0060A504623
S113455005B0BDE8F08F0B2EF7D008250B261346C7
S1134560ECE719F802100233A1F140023E2A03D904
S113457081F080027C2AE8D8721E9542E5D2009A26
S11345806F1C50551A46009B0235D9551346D5E782
S11345904A44914612F8013B2F2BFAD05C2BF8D0F9
S11345A0002DD2D094F820302568E52B04BF0523D4
S11345B084F82030212834BF04230023204684F8C3
S11345C02B30FFF7DDFD0190002840F0FB80A76948
S11345D0EE6ABE4215D0EB7805F1300B002B75D195
S11345E0594668783A460123FEF794FD40B14FF0EE
S11345F0FF33EB624FF0010A504605B0BDE8F08F7F
S1134600EF62E3691A78002A00F0A780DA7A02F0F0
S11346103F02A271D97A080736D4187894F820108A
S1134620884231D1587894F8211088422CD1987856
S113463094F82210884227D1D87894F8231088421D
S113464022D1187994F8241088421DD1587994F80D
S11346502510884218D1987994F82610884213D1ED
S1134660D87994F8271088420ED1187A94F8281033
S1134670884209D1587A94F82910884204D1997A49
S113468094F82A30994272D0A769226823693FB905
S11346904FF0040ABAF1040F94F82B305FD056E7B8
S11346A003F120064C4B9E42F2D8C6F30803002BBC
S11346B04ED161690137A76159BB1189B1EB561F0E
S11346C046D80023A3614FF0040AE3E7594668780B
S11346D032460123FEF72EFD00288BD12A6AAB69EE
S11346E0B21A9A42E870BFF47BAF95F80280B8F131
S11346F0010F01D874E7AB691E4408F1FF38324654
S1134700687859460123FEF715FDB8F1010FF2D17F
S113471066E75089013810EA562819D110460393E8
S11347200292FFF729FA012849D9411C4CD0029A78
S1134730039B51698842C4D20239871E8F4260614B
S113474003D25089916A00FB07184746C4F81880C1
S113475030331A44E26126613AE794F82B3013F0BF
S1134760040F14BF4FF0040A4FF0050AEFE694F863
S11347702B305B072BD4D2061ED523699AF8001080
S1134780C3F3080330335344D87E9A7E032942EAA4
S1134790002201D0A2608BE6597D1B7D43EA0123F0
S11347A042EA0342F6E72046802384F82B3005B022
S11347B0BDE8F04FFFF7E4BC4FF0050AC7E64FF041
S11347C0020A67E7824665E74FF0010A62E7DDF80F
S11347D004A0BCE6CCB40000FFFF1F002DE9F04F9D
S11347E085B005460468FFF7CBFC8046002840F0FE
S11347F0C680AE69DFF8B092E76AB74216D0E378B4
S113480004F1300A002B40F096805146607832461D
S11348100123FEF77FFC40B14FF0FF33E3624FF01A
S11348200108404605B0BDE8F08FE662E869037808
S1134830E52B01D0002B3AD1AF69E66AB7420FD01D
S1134840E37804F1300A002B40F09C8051466078F4
S11348503A460123FEF75EFC0028DDD1E869E762F1
S11348600021202206F047F8EB6905F1200143EA14
S11348700102920740F0AB8005F12402181D814229
S113488038BF9342C0F0A3802A6A1A606A6A5A60E9
S1134890404695F828201A7295F829205A7295F8FE
S11348A02A209A720123E37005B0BDE8F08FAE6947
S11348B02B682F692EB94FF00708404605B0BDE8B4
S11348C0F08F20374F45F6D8C7F3080BBBF1000F24
S11348D02BD169690136AE6129B91A89B2EB571F28
S11348E023D8A961E7E7B3F80AC00CF1FF3C1CEA3E
S11348F0572A1AD118460193FFF73EF901280646B4
S1134900019B7DD901308AD05A6996427BD2A6F1A7
S1134910020E023A72456E6104D9B3F80AC09A6A6B
S11349200CFB0E2A5646C5F818A00BF1300B5B445D
S1134930EB612F6160E7514660783A460123FEF748
S1134940F9FB00287FF46BAF226AA369BA1A9A4272
S1134950E070BFF45AAF94F802B0BBF1010F01D874
S113496053E7A3691F440BF1FF3B3A466078514675
S11349700123FEF7DFFBBBF1010FF2D145E7042869
S113498099D04EE75146607832460123FEF7D2FBB8
S113499000287FF444AF226AA369B21A9A4284F8C9
S11349A00380BFF453AF94F80290B9F1010F01D81A
S11349B04CE7A3691E4409F1FF3932466078514639
S11349C00123FEF7B7FBB9F1010FF2D13EE795F8E9
S11349D020201A7095F821205A7095F822209A7098
S11349E095F82320DA7095F824201A7195F825207B
S11349F05A7195F826209A7195F82720DA7147E7BD
S1134A004FF002080DE7284669690193FFF7ECF9B6
S1134A10019B064600283FF44EAF0128F0D0411C0C
S1134A203FF4FDAEDA78002A35D103F130000021DD
S1134A304FF40072019305F05EFF019BA6F1020C96
S1134A405A69911E8C4521D359890020D862C9B175
S1134A5000214FF001021846DA700391CDF808C026
S1134A600193FEF785FB0399013100287FF4D7AE4B
S1134A70019BDDF808C0D86A5A8901309142D86296
S1134A80E7D35A69411AE646D96242E75989986AD6
S1134A9001FB0C00DAE718460193FEF769FB019B62
S1134AA000287FF4BCAEC0E7FFFF1F002DE9F04FE4
S1134AB0012983B080460C46076802D97B69994274
S1134AC003D3022003B0BDE8F08F62B1012AF8D904
S1134AD09342F6D9114638464FF0FF32FEF7E8FE0E
S1134AE000286FD0EEE73D46012CEAD96B699C4261
S1134AF0E7D22B78022B68D0032B00F08780012BA0
S1134B00DFD12A6A04EB540AD5F82CB002EB5A26FA
S1134B10B34510D0EA7805F13009002A40F0A880A6
S1134B204946687832460123FEF7F4FA002840F03B
S1134B3096802A6AEE62CAF308032B440AF1010A3A
S1134B4002EB5A2993F830304E45009310D0EB789D
S1134B5005F1300C002B40F0F780614668784A4636
S1134B600123FEF7D7FA002879D1009BC5F82C90D1
S1134B70CAF3080A554495F8305043EA0525E3077B
S1134B804CBF2D09C5F30B05002D6FD0012D98D016
S1134B90012C96D97B699C4293D221463846002247
S1134BA0FEF786FE00288DD17A693B69911E8B42FF
S1134BB005D23979013341F001013B613971AA42CF
S1134BC054D92C46D8F800508EE72E6AD5F82CB06C
S1134BD006EB14265E450DD0EB7805F1300A002B68
S1134BE040F08E805146687832460123FEF792FAEF
S1134BF0A8BBEE62630003F4FF73EA18134692F84D
S1134C00302093F8315042EA0525BDE72E6AD5F8E5
S1134C102CB006EBD4165E450CD0EB7805F1300AC7
S1134C20002B4AD15146687832460123FEF772FAC6
S1134C30A8B9EE62A30003F4FE7303F130022A4420
S1134C40D07891781D44527895F8303041EA0025A7
S1134C5042EA052543EA052525F0704594E74FF01F
S1134C60FF33EB62012003B0BDE8F08F002029E799
S1134C70494668785A46FEF75DFA0028F2D12A6A56
S1134C80AB69C2EB0B029A42E870BFF449AF95F8E6
S1134C9002C0BCF1010F7FF643AF0094644600E00C
S1134CA0AB699B44013C5A46687849460123FEF7A8
S1134CB041FA012CF4D1009C32E7514668785A46F7
S1134CC00123FEF737FA0028CCD12A6AAB69C2EB7C
S1134CD00B029A42E870A5D295F80290B9F1010F3F
S1134CE001D89FE7AB699B4409F1FF395A466878BC
S1134CF051460123FEF71EFAB9F1010FF2D191E7F3
S1134D00514668785A460123FEF714FA0028A9D1BF
S1134D102A6AAB69C2EB0B029A42E870BFF462AF35
S1134D2095F80290B9F1010F01D85BE7AB699B4498
S1134D3009F1FF395A46687851460123FEF7FAF91A
S1134D40B9F1010FF2D14DE761466878324601238B
S1134D50CDF804C0FEF7EEF9002883D12A6AAB69C6
S1134D60B21A9A42E870DDF804C0BFF4F6AE95F8C2
S1134D7002B0BBF1010F7FF6F0AE0194644600E08F
S1134D80AB691E440BF1FF3B324668782146012390
S1134D90FEF7D0F9BBF1010FF2D1A446019CDCE689
S1134DA010B582B001900091E9B10C78202C09D99A
S1134DB03A2C18D0084601E03A2B11D010F8013FE4
S1134DC0202BF9D810490B680BB100201870019BF7
S1134DD063B10020012A0B6018700AD002B010BD24
S1134DE0013188420CD00B2002B010BD18460B6074
S1134DF0F4E7024601A96846FEF702FB02B010BDC3
S1134E00302CDFD0EFE700BFB40200202DE9F041E1
S1134E108EB0019170B102F03F060446154601A818
S1134E20324602A9FEF7ECFA40B1002323600EB02B
S1134E30BDE8F08109200EB0BDE8F081029B0EAF01
S1134E4047F82C3D01993846FFF71AFBD0B99DF974
S1134E503730002BC0F2B98015F01C0F40F09B8056
S1134E609DF81230DA0600F1B580AF0702D5D807F5
S1134E7000F1A28005F00803DBB2DDF80880002B06
S1134E8043D144E015F01C0FCFD00428CDD13846CF
S1134E90FFF7A4FC46F008060028C6D1310740F10C
S1134EA096800A9B78253421122256209D7319740A
S1134EB0D8735A740A9B4FF0200E9D751976D875D5
S1134EC05A760A9BDDF8088083F80BE00A9B98F871
S1134ED00020DD7E997E032A41EA052500F0AE809C
S1134EE000229A76DA7698F80010032904BF1A751E
S1134EF05A750A9B002201211A775A779A77DA7732
S1134F0088F80310002D40F0838046F04006D8F85E
S1134F102C200A9B2262636298F80010D87E9A7E45
S1134F20032942EA002249D0A260D87F997F5A7FA0
S1134F3041EA00211B7FB8F8060042EA012243EA55
S1134F400223002104F12807A0806174E1616161FA
S1134F50E360C4F80080267438464FF4007205F00C
S1134F60CAFCB10621D5E568FDB1B8F80A60A168AC
S1134F707602B54265612FD9AD1B2068FEF7FCFDB2
S1134F8001280146A5EB060314D9421C0FD0B542F3
S1134F9022D91D46F1E79DF8123013F0110F0BD101
S1134FA068077FF57BAF08203FE700203FE701203B
S1134FB0A1613AE70220FBE7072036E7587D197D17
S1134FC041EA002142EA0142AEE706202DE7DDF87E
S1134FD008809CE7042028E7C5F30803A161002B9F
S1134FE0E3D0029802394369023B99422DD24289A7
S1134FF0836A02FB013343B303EB5522E261407839
S113500039460123FEF786F80028CED001200CE7AC
S113501038462946D8F82C70FFF748FD00287FF45D
S113502004AF39460298FEF727F9DDF80880013D00
S1135030C8F80C5000283FF468AFF6E6597D1A7D95
S113504042EA012245EA02454AE70220EDE600BFB2
S11350502DE9F04F9B46002385B0CBF80030054680
S113506020B1036813B192461A781AB9092005B021
S1135070BDE8F08F0E468288D9889142F6D15878DF
S1135080FEF730F8C407F1D4687CD5F80090002806
S1135090EDD12A7C900703D4072005B0BDE8F08F3A
S11350A06B691AEB030F28BF6FEA030ABAF1000F0A
S11350B000F0CD8005F1280203925BE0B9F80A7094
S11350C0013F17EA532710D1002B40F0B880A8689D
S11350D0002800F0CF80012800F00381421C00F07A
S11350E0A980AB68A86103B9A86095F91030002BBA
S11350F0C0F2B280AB69D9F81420023B023A934261
S113510080F0EF80B9F80A20D9F8281003FB02FCDC
S11351101CEB0108019100F0E4805FEA5A24B844D2
S113512072D03B19934288BFD41B99F801003146D1
S113513042462346CDF808C0FDF7FCFF002879D18C
S1135140EB69DDF808C0C8EB0308444500F2A2800F
S1135150640226446B69E9682344994238BF1946BE
S1135160DBF80020BAEB040A22446B61E960CBF857
S113517000206BD0C3F30804002C9FD004F1280353
S11351802B44C4F5007446EA0302544528BF544630
S1135190181D12F0030F06F104020CBF01210021B7
S11351A0864238BF93422CBF01220022114237D0DD
S11351B0092C35D91F469C46221F920801324FEA1A
S11351C0820E301F002150F8043F01318A4247F813
S11351D0043BF8D8A645CEEB04000CEB0E0706EB17
S11351E00E017CD016F822E001280CF822E024D02D
S11351F04B7802287B7020D08B782644BB702B7CA4
S113520063F07F032B74A5E7EB696C69434502D017
S1135210EB689C4233D3C5F81C80C4F30804ADE7A3
S11352203246013B264412F8011BB24203F8011F27
S1135230F9D1E4E70120687419E72644DFE728463A
S1135240A969FEF7D1FD00287FF445AF2A7C42F01E
S113525040022A7400200AE799F801000399EA69D8
S11352600123FDF767FF0028E4D12B7C03F07F03C3
S11352702B743FE728463946FEF7B6FDE3E799F875
S11352800100039942460123FDF744FF0028D1D1D0
S11352906C69C0E7019A03989B1ACCEB0303DF1BEC
S11352A07F02F21942EA00039B0706EB48281BD150
S11352B03B1D334405F12C018A4238BF984213D375
S11352C00146131F05F50A7053F8042F41F8042B07
S11352D08142F9D12B7C03F07F032B7438E70E460F
S11352E08DE702206874C2E605F1270308F5007112
S11352F018F8012B884503F8012FF9D1EAE700BF1C
S113530018B103680BB11A780AB909207047D98813
S113531082889142F9D12DE9F04704465878FDF787
S1135320E1FEC10702D50920BDE8F087237C25688A
S11353305A064ED51B0660D4276AEE6AB74212D0CD
S1135340EB7805F13009002B65D1494668783A4677
S11353500123FDF7DFFE28B14FF0FF33EB6201209C
S1135360BDE8F087EF62636ADA7A42F02002DA720B
S1135370A2682168C2F30720D8769A7609780329AF
S11353806BD0E26800214FF0780C4FEA122A4FEA02
S113539012494FEA12684FF0560E122034270126A4
S11353A058761A7783F81DA083F81E9083F81F801F
S11353B083F816C083F817E01F769974D9742846C9
S11353C0EE70FDF797FF237C23F04003237490B91C
S11353D02568002DA7D02B78002BA4D0EA88A388B9
S11353E09A42A0D16878FDF77DFE10F001009AD1B1
S11353F02060BDE8F087BDE8F087687804F12801F3
S1135400E2690123FDF796FE0028A8D1237C03F06E
S11354107F03237490E74946687832460123FDF7F9
S113542089FE00289BD12A6AAB69B21A9A42E870B5
S11354308BD295F80280B8F1010F01D885E7AB69EA
S11354401E4408F1FF383246687849460123FDF7C7
S113545071FEB8F1010FF2D177E7120C110A1A7537
S113546059758EE700F1FF3C2DE9F04FE3469BB000
S113547000220791089209921BF8015F9DB10A2D41
S11354802ED0002AF8DB1AAB541C13443C2C03F82E
S1135490405C1CDC099B1BF8015F01332246089425
S11354A00993002DEBD1002AC0F2008107980AA9C4
S11354B006ABFFF7CDFD002840F0F880089A069B64
S11354C09A4240F0F38009981BB0BDE8F08F079E24
S11354D01EB133680BB11A78F2B94FF0FF34D9E733
S11354E0002AC9DB541C1AAB13443C2C4FF00D02A8
S11354F003F8402C0ADD224606AB07980AA9FFF7F9
S1135500A7FD069BE41A18BF4FF0FF34099B2246FF
S1135510013308940993B4E7D988B2889142DCD165
S11355205878FDF7DFFDC707D7D43268737C11467E
S1135530002BD2D1327C9507CFD57369DC42C0F001
S1135540F2807FEA030900F053814FF0000806F16E
S11355502802CDF810B00DF1280A05920394C44630
S11355608B4657E0BBF80A50013D15EA532510D18C
S1135570002B40F0C480B068002800F0E8800128C7
S113558000F0FD80441C00F0AC80B368B06103B946
S1135590B06096F91030002BC0F2C780B769DBF811
S11355A01430023F023B9F4280F0E980BBF80A308E
S11355B0DBF8282007FB03F717EB0208019200F041
S11355C0DE805FEA5924A84475D02A19934238BF73
S11355D05C1B9BF80100514642462346CDF808C0A7
S11355E0FDF7A8FDDDF808C000287AD1F369C8EBFF
S11355F00308444500F2CA806402A2447369F26855
S113560023449A4238BF1A46B9EB0409A44473618F
S1135610F2607FD0C3F30804002CA3D004F1280364
S11356203344C4F500744AEA03024C4528BF4C468F
S1135630181D12F0030F0AF104020CBF012100210E
S1135640824538BF93422CBF0122002211423ED032
S1135650092C3CD91D469E46221F92080132970010
S1135660AAF10400002150F8043F0131914245F8A9
S1135670043BF8D37346BC42A4EB070003EB0705D5
S11356800AEB070100F0A7801AF8227001280EF82F
S1135690227032D04B7802286B702ED08B78A244C3
S11356A0AB70337C63F07F033374A7E74FF0FF30B4
S11356B01BB0BDE8F08FF3697469984502D0F368B4
S11356C09C424DD3C6F81C80C4F30804A6E7524696
S11356D0013BA24412F8011B524503F8011FF9D102
S11356E0DFE7E0460123039CDDF810B07374B4EBEC
S11356F0080418BF4FF0FF34CCE6A244D1E730468B
S1135700B169CDF804C0FEF76FFBDDF804C00028D2
S11357107FF435AFE046039CDDF810B0327C42F0F4
S113572040023274E3E7A1460FE79BF801000599B4
S1135730F2690123CDF804C0FDF7FCFCDDF804C0D8
S11357400028CED1337C03F07F03337426E7304640
S11357502946CDF804C0FEF747FBDDF804C0D6E7C0
S11357609BF80100059942460123CDF804C0FDF7DA
S1135770D1FCDDF804C00028B3D17469A2E7022388
S1135780039CE046DDF810B07374B0E7019A059805
S11357909B1ADB1B5B1B5B020AEB030242EA000160
S11357A089070AEB482818D10433534406F12C0125
S11357B08A4238BF984210D30146131F06F50A7077
S11357C053F8042F41F8042B8142F9D1337C03F0C0
S11357D07F03337410E78A4663E706F1270308F56D
S11357E0007118F8012B884503F8012FF9D1EDE772
S11357F0C84694E770B40748074E084D084C094959
S1135800094A002333602B60236003600B6013603C
S113581070BC7047D0040020B8020020D4040020DB
S1135820BC020020DC040020D804002028B9064B68
S11358301868B0FA80F040097047044B1868B0FA51
S113584080F04009704700BFB8020020D004002057
S113585038B9084B1868A0F11000B0FA80F040097C
S11358607047054B1868A0F50070B0FA80F0400945
S1135870704700BFB8020020D004002070B498B173
S113588001280ED1154A1368002B22DD1449154D49
S11358900C68013B601CB0F5007F136008602B5D51
S11358A012D070BC184670470F4A1368002B12DDE3
S11358B00E490F4E0D68013B6C1C102C13600C60DC
S11358C0735DEED10860ECE70022184670BC0A60F4
S11358D070470023E5E70346E3E700BFD004002058
S11358E0DC040020C0020020B8020020D404002000
S11358F0C0040020F0B4B0B1012812D1124A1368D8
S1135900B3F5007F0DDA114801330568104E6C1CA5
S1135910B4F5007F136008BF00230460715508BF0D
S11359200360F0BC70470B4A13680F2BF9DC0A4C78
S11359300A4F26680133751C102D1360B955256074
S1135940EFD12060EDE700BFD0040020D804002090
S1135950C0020020B8020020BC020020C0040020C5
S1135960F0B5DFF84CC0DFF84CE00A4F0A4E0B4D9F
S11359700B4C0C480C490D4A0023CCF80030CEF8EF
S113598000303B6033602B60236003600B60136066
S1135990F0BD00BF04070020F80400201007002019
S11359A00007002008070020F0040020F404002071
S11359B0FC0400200C07002028B9074B1868B0FA33
S11359C080F04009704701280CBF044B044B186851
S11359D0B0FA80F040097047FC040020F80400206D
S11359E00807002038B90C4B1868A0F50070B0FA0D
S11359F080F040097047012807D0084B1868A0F1CF
S1135A001000B0FA80F040097047054B1868B0FAEE
S1135A1080F04009704700BFFC0400200807002004
S1135A20F8040020012830B427D012D302280DD165
S1135A301B4A1368002B2FDD1A491B4D0C68013BD0
S1135A40601C1028136008602B5D11D030BC184610
S1135A507047164A1368002B1EDD1549154D0C6856
S1135A60013B601CB0F5007F136008602B5DEDD135
S1135A7030BC002218460A6070470F480368002BA8
S1135A800ADD0E4A0E4D1468013B03602B5D611C58
S1135A90184630BC116070470023184630BC70476C
S1135AA008070020F0040020E0040020FC0400208B
S1135AB00C07002000050020F80400201007002037
S1135AC0F8040020012870B426D013D302280FD183
S1135AD0184A13680F2B0BDC1748184E056801335E
S1135AE06C1C102C13607155046001D100230360F9
S1135AF070BC7047124A1368B3F5007FF8DA114896
S1135B00114E056801336C1CB4F5007F13607155A8
S1135B100460EBD070BC70470C4A1368002BE7DAC2
S1135B200B480C4E056801336C1C136071550460FE
S1135B30DEE700BF08070020F4040020E004002092
S1135B40FC0400200407002000050020F8040020C5
S1135B5000070020F804002010B5044604F006FFF6
S1135B60C1B22046BDE81040FBF788BE00B5032053
S1135B7083B0042101220023FDF728F80123042126
S1135B8000228DE80C0003200A46FCF7E3FF4FF6E1
S1135B90FF700449044B0222C1F81C011A6003B0CF
S1135BA05DF804FB0060004000E100E02DE9F047EF
S1135BB086B06E46044640F26D190F469646DFF8ED
S1135BC0D0C01D46DCF80000DCF80410DCF8082026
S1135BD0DCF80C306FF4F6680FC6DCF81000DCF863
S1135BE01410A4F2B27303C62849A4F26D706FF4C2
S1135BF0C86C09FB03F981FB003A04EB0C0381FB3D
S1135C0003C2A044B8F1000F4FEAE070B8BFA4F299
S1135C10AE78A0EB6A1AD81706ABC0EBE21203EB1E
S1135C2047030AEBA80833F91A0C424409EB0203B0
S1135C3003449E44022F0F9E0EF1FF330BDDA20797
S1135C4009D181FB042CE217C2EB6C10642707FB1B
S1135C50104080B1734603EB430305EBC3050E9B71
S1135C60C5EB051503EB8501C1EB011006EB8000C4
S1135C7006B0BDE8F087C2EBEC1C4FF4C87202FB1F
S1135C801C44002C08BF7346E5E700BF1F85EB5199
S1135C90DCB40000014B1878704700BF30070020C7
S1135CA0214A10B5D2F81031D2F814110B40D9049E
S1135CB0C2F81C312AD45A062FD4DB0625D51B483A
S1135CC01B4B02681B4C013283FB0231D317C3EB1D
S1135CD0A10303EB83030321B2EB430302602170AE
